{"contracts/FraudDetector.sol":{"SimpleFraudDetector":{"abi":[{"inputs":[{"internalType":"address","name":"registryAddress","type":"address"}],"stateMutability":"nonpayable","type":"constructor"},{"inputs":[{"internalType":"address","name":"","type":"address"},{"internalType":"string","name":"","type":"string"}],"name":"illnessHistories","outputs":[{"internalType":"uint256","name":"lastPharmacyTime","type":"uint256"},{"internalType":"uint256","name":"lastTreatmentDays","type":"uint256"}],"stateMutability":"view","type":"function"},{"inputs":[],"name":"registry","outputs":[{"internalType":"contract MedicalFlowRegistry","name":"","type":"address"}],"stateMutability":"view","type":"function"},{"inputs":[{"internalType":"address","name":"newRegistry","type":"address"}],"name":"setRegistry","outputs":[],"stateMutability":"nonpayable","type":"function"},{"inputs":[{"internalType":"bytes32","name":"recordId","type":"bytes32"}],"name":"verify","outputs":[{"internalType":"bool","name":"","type":"bool"}],"stateMutability":"nonpayable","type":"function"}],"evm":{"bytecode":{"linkReferences":{},"object":"608060405234801561001057600080fd5b50604051611130380380611130833981810160405281019061003291906100db565b806000806101000a81548173ffffffffffffffffffffffffffffffffffffffff021916908373ffffffffffffffffffffffffffffffffffffffff16021790555050610108565b600080fd5b600073ffffffffffffffffffffffffffffffffffffffff82169050919050565b60006100a88261007d565b9050919050565b6100b88161009d565b81146100c357600080fd5b50565b6000815190506100d5816100af565b92915050565b6000602082840312156100f1576100f0610078565b5b60006100ff848285016100c6565b91505092915050565b611019806101176000396000f3fe608060405234801561001057600080fd5b506004361061004c5760003560e01c806375e36616146100515780637b1039991461008157806397a254011461009f578063a91ee0dc146100d0575b600080fd5b61006b6004803603810190610066919061044d565b6100ec565b6040516100789190610495565b60405180910390f35b610089610355565b604051610096919061052f565b60405180910390f35b6100b960048036038101906100b491906106ce565b610379565b6040516100c7929190610743565b60405180910390f35b6100ea60048036038101906100e5919061076c565b6103c0565b005b60008060008054906101000a900473ffffffffffffffffffffffffffffffffffffffff1673ffffffffffffffffffffffffffffffffffffffff1663fb31ff37846040518263ffffffff1660e01b815260040161014891906107a8565b600060405180830381865afa158015610165573d6000803e3d6000fd5b505050506040513d6000823e3d601f19601f8201168201806040525081019061018e9190610e1a565b905080608001516101d4576040517f08c379a00000000000000000000000000000000000000000000000000000000081526004016101cb90610ec0565b60405180910390fd5b600060016000836000015173ffffffffffffffffffffffffffffffffffffffff1673ffffffffffffffffffffffffffffffffffffffff16815260200190815260200160002082606001516000015160405161022f9190610f27565b908152602001604051809103902060405180604001604052908160008201548152602001600182015481525050905060008160000151146102aa57600081600001518360e001516102809190610f6d565b90506201518082602001516102959190610fa1565b8110156102a85760009350505050610350565b505b60405180604001604052808360e00151815260200183606001516080015181525060016000846000015173ffffffffffffffffffffffffffffffffffffffff1673ffffffffffffffffffffffffffffffffffffffff1681526020019081526020016000208360600151600001516040516103249190610f27565b908152602001604051809103902060008201518160000155602082015181600101559050506001925050505b919050565b60008054906101000a900473ffffffffffffffffffffffffffffffffffffffff1681565b600160205281600052604060002081805160208101820180518482526020830160208501208183528095505050505050600091509150508060000154908060010154905082565b806000806101000a81548173ffffffffffffffffffffffffffffffffffffffff021916908373ffffffffffffffffffffffffffffffffffffffff16021790555050565b6000604051905090565b600080fd5b600080fd5b6000819050919050565b61042a81610417565b811461043557600080fd5b50565b60008135905061044781610421565b92915050565b6000602082840312156104635761046261040d565b5b600061047184828501610438565b91505092915050565b60008115159050919050565b61048f8161047a565b82525050565b60006020820190506104aa6000830184610486565b92915050565b600073ffffffffffffffffffffffffffffffffffffffff82169050919050565b6000819050919050565b60006104f56104f06104eb846104b0565b6104d0565b6104b0565b9050919050565b6000610507826104da565b9050919050565b6000610519826104fc565b9050919050565b6105298161050e565b82525050565b60006020820190506105446000830184610520565b92915050565b6000610555826104b0565b9050919050565b6105658161054a565b811461057057600080fd5b50565b6000813590506105828161055c565b92915050565b600080fd5b600080fd5b6000601f19601f8301169050919050565b7f4e487b7100000000000000000000000000000000000000000000000000000000600052604160045260246000fd5b6105db82610592565b810181811067ffffffffffffffff821117156105fa576105f96105a3565b5b80604052505050565b600061060d610403565b905061061982826105d2565b919050565b600067ffffffffffffffff821115610639576106386105a3565b5b61064282610592565b9050602081019050919050565b82818337600083830152505050565b600061067161066c8461061e565b610603565b90508281526020810184848401111561068d5761068c61058d565b5b61069884828561064f565b509392505050565b600082601f8301126106b5576106b4610588565b5b81356106c584826020860161065e565b91505092915050565b600080604083850312156106e5576106e461040d565b5b60006106f385828601610573565b925050602083013567ffffffffffffffff81111561071457610713610412565b5b610720858286016106a0565b9150509250929050565b6000819050919050565b61073d8161072a565b82525050565b60006040820190506107586000830185610734565b6107656020830184610734565b9392505050565b6000602082840312156107825761078161040d565b5b600061079084828501610573565b91505092915050565b6107a281610417565b82525050565b60006020820190506107bd6000830184610799565b92915050565b600080fd5b600080fd5b6000815190506107dc8161055c565b92915050565b60005b838110156108005780820151818401526020810190506107e5565b60008484015250505050565b600061081f61081a8461061e565b610603565b90508281526020810184848401111561083b5761083a61058d565b5b6108468482856107e2565b509392505050565b600082601f83011261086357610862610588565b5b815161087384826020860161080c565b91505092915050565b600067ffffffffffffffff821115610897576108966105a3565b5b602082029050602081019050919050565b600080fd5b60006108c06108bb8461087c565b610603565b905080838252602082019050602084028301858111156108e3576108e26108a8565b5b835b8181101561092a57805167ffffffffffffffff81111561090857610907610588565b5b808601610915898261084e565b855260208501945050506020810190506108e5565b5050509392505050565b600082601f83011261094957610948610588565b5b81516109598482602086016108ad565b91505092915050565b600067ffffffffffffffff82111561097d5761097c6105a3565b5b602082029050602081019050919050565b6109978161072a565b81146109a257600080fd5b50565b6000815190506109b48161098e565b92915050565b60006109cd6109c884610962565b610603565b905080838252602082019050602084028301858111156109f0576109ef6108a8565b5b835b81811015610a195780610a0588826109a5565b8452602084019350506020810190506109f2565b5050509392505050565b600082601f830112610a3857610a37610588565b5b8151610a488482602086016109ba565b91505092915050565b600081519050610a6081610421565b92915050565b600067ffffffffffffffff821115610a8157610a806105a3565b5b610a8a82610592565b9050602081019050919050565b6000610aaa610aa584610a66565b610603565b905082815260208101848484011115610ac657610ac561058d565b5b610ad18482856107e2565b509392505050565b600082601f830112610aee57610aed610588565b5b8151610afe848260208601610a97565b91505092915050565b600060e08284031215610b1d57610b1c6107c3565b5b610b2760e0610603565b9050600082015167ffffffffffffffff811115610b4757610b466107c8565b5b610b538482850161084e565b600083015250602082015167ffffffffffffffff811115610b7757610b766107c8565b5b610b838482850161084e565b602083015250604082015167ffffffffffffffff811115610ba757610ba66107c8565b5b610bb384828501610934565b604083015250606082015167ffffffffffffffff811115610bd757610bd66107c8565b5b610be384828501610a23565b6060830152506080610bf7848285016109a5565b60808301525060a0610c0b84828501610a51565b60a08301525060c082015167ffffffffffffffff811115610c2f57610c2e6107c8565b5b610c3b84828501610ad9565b60c08301525092915050565b610c508161047a565b8114610c5b57600080fd5b50565b600081519050610c6d81610c47565b92915050565b60068110610c8057600080fd5b50565b600081519050610c9281610c73565b92915050565b60006101408284031215610caf57610cae6107c3565b5b610cba610140610603565b90506000610cca848285016107cd565b600083015250602082015167ffffffffffffffff811115610cee57610ced6107c8565b5b610cfa8482850161084e565b602083015250604082015167ffffffffffffffff811115610d1e57610d1d6107c8565b5b610d2a8482850161084e565b604083015250606082015167ffffffffffffffff811115610d4e57610d4d6107c8565b5b610d5a84828501610b07565b6060830152506080610d6e84828501610c5e565b60808301525060a082015167ffffffffffffffff811115610d9257610d916107c8565b5b610d9e8482850161084e565b60a08301525060c082015167ffffffffffffffff811115610dc257610dc16107c8565b5b610dce8482850161084e565b60c08301525060e0610de2848285016109a5565b60e083015250610100610df784828501610c5e565b61010083015250610120610e0d84828501610c83565b6101208301525092915050565b600060208284031215610e3057610e2f61040d565b5b600082015167ffffffffffffffff811115610e4e57610e4d610412565b5b610e5a84828501610c98565b91505092915050565b600082825260208201905092915050565b7f506861726d616379206e6f7420636f6e6669726d656400000000000000000000600082015250565b6000610eaa601683610e63565b9150610eb582610e74565b602082019050919050565b60006020820190508181036000830152610ed981610e9d565b9050919050565b600081519050919050565b600081905092915050565b6000610f0182610ee0565b610f0b8185610eeb565b9350610f1b8185602086016107e2565b80840191505092915050565b6000610f338284610ef6565b915081905092915050565b7f4e487b7100000000000000000000000000000000000000000000000000000000600052601160045260246000fd5b6000610f788261072a565b9150610f838361072a565b9250828203905081811115610f9b57610f9a610f3e565b5b92915050565b6000610fac8261072a565b9150610fb78361072a565b9250828202610fc58161072a565b91508282048414831517610fdc57610fdb610f3e565b5b509291505056fea26469706673582212202e32cd6d2d8194f931397fc839f286589bd8eeaff2ca8e1a1f2403db382cbc6d64736f6c634300081c0033","opcodes":"PUSH1 0x80 PUSH1 0x40 MSTORE CALLVALUE DUP1 ISZERO PUSH2 0x10 JUMPI PUSH1 0x0 DUP1 REVERT JUMPDEST POP PUSH1 0x40 MLOAD PUSH2 0x1130 CODESIZE SUB DUP1 PUSH2 0x1130 DUP4 CODECOPY DUP2 DUP2 ADD PUSH1 0x40 MSTORE DUP2 ADD SWAP1 PUSH2 0x32 SWAP2 SWAP1 PUSH2 0xDB JUMP JUMPDEST DUP1 PUSH1 0x0 DUP1 PUSH2 0x100 EXP DUP2 SLOAD DUP2 PUSH20 0xFFFFFFFFFFFFFFFFFFFFFFFFFFFFFFFFFFFFFFFF MUL NOT AND SWAP1 DUP4 PUSH20 0xFFFFFFFFFFFFFFFFFFFFFFFFFFFFFFFFFFFFFFFF AND MUL OR SWAP1 SSTORE POP POP PUSH2 0x108 JUMP JUMPDEST PUSH1 0x0 DUP1 REVERT JUMPDEST PUSH1 0x0 PUSH20 0xFFFFFFFFFFFFFFFFFFFFFFFFFFFFFFFFFFFFFFFF DUP3 AND SWAP1 POP SWAP2 SWAP1 POP JUMP JUMPDEST PUSH1 0x0 PUSH2 0xA8 DUP3 PUSH2 0x7D JUMP JUMPDEST SWAP1 POP SWAP2 SWAP1 POP JUMP JUMPDEST PUSH2 0xB8 DUP2 PUSH2 0x9D JUMP JUMPDEST DUP2 EQ PUSH2 0xC3 JUMPI PUSH1 0x0 DUP1 REVERT JUMPDEST POP JUMP JUMPDEST PUSH1 0x0 DUP2 MLOAD SWAP1 POP PUSH2 0xD5 DUP2 PUSH2 0xAF JUMP JUMPDEST SWAP3 SWAP2 POP POP JUMP JUMPDEST PUSH1 0x0 PUSH1 0x20 DUP3 DUP5 SUB SLT ISZERO PUSH2 0xF1 JUMPI PUSH2 0xF0 PUSH2 0x78 JUMP JUMPDEST JUMPDEST PUSH1 0x0 PUSH2 0xFF DUP5 DUP3 DUP6 ADD PUSH2 0xC6 JUMP JUMPDEST SWAP2 POP POP SWAP3 SWAP2 POP POP JUMP JUMPDEST PUSH2 0x1019 DUP1 PUSH2 0x117 PUSH1 0x0 CODECOPY PUSH1 0x0 RETURN INVALID PUSH1 0x80 PUSH1 0x40 MSTORE CALLVALUE DUP1 ISZERO PUSH2 0x10 JUMPI PUSH1 0x0 DUP1 REVERT JUMPDEST POP PUSH1 0x4 CALLDATASIZE LT PUSH2 0x4C JUMPI PUSH1 0x0 CALLDATALOAD PUSH1 0xE0 SHR DUP1 PUSH4 0x75E36616 EQ PUSH2 0x51 JUMPI DUP1 PUSH4 0x7B103999 EQ PUSH2 0x81 JUMPI DUP1 PUSH4 0x97A25401 EQ PUSH2 0x9F JUMPI DUP1 PUSH4 0xA91EE0DC EQ PUSH2 0xD0 JUMPI JUMPDEST PUSH1 0x0 DUP1 REVERT JUMPDEST PUSH2 0x6B PUSH1 0x4 DUP1 CALLDATASIZE SUB DUP2 ADD SWAP1 PUSH2 0x66 SWAP2 SWAP1 PUSH2 0x44D JUMP JUMPDEST PUSH2 0xEC JUMP JUMPDEST PUSH1 0x40 MLOAD PUSH2 0x78 SWAP2 SWAP1 PUSH2 0x495 JUMP JUMPDEST PUSH1 0x40 MLOAD DUP1 SWAP2 SUB SWAP1 RETURN JUMPDEST PUSH2 0x89 PUSH2 0x355 JUMP JUMPDEST PUSH1 0x40 MLOAD PUSH2 0x96 SWAP2 SWAP1 PUSH2 0x52F JUMP JUMPDEST PUSH1 0x40 MLOAD DUP1 SWAP2 SUB SWAP1 RETURN JUMPDEST PUSH2 0xB9 PUSH1 0x4 DUP1 CALLDATASIZE SUB DUP2 ADD SWAP1 PUSH2 0xB4 SWAP2 SWAP1 PUSH2 0x6CE JUMP JUMPDEST PUSH2 0x379 JUMP JUMPDEST PUSH1 0x40 MLOAD PUSH2 0xC7 SWAP3 SWAP2 SWAP1 PUSH2 0x743 JUMP JUMPDEST PUSH1 0x40 MLOAD DUP1 SWAP2 SUB SWAP1 RETURN JUMPDEST PUSH2 0xEA PUSH1 0x4 DUP1 CALLDATASIZE SUB DUP2 ADD SWAP1 PUSH2 0xE5 SWAP2 SWAP1 PUSH2 0x76C JUMP JUMPDEST PUSH2 0x3C0 JUMP JUMPDEST STOP JUMPDEST PUSH1 0x0 DUP1 PUSH1 0x0 DUP1 SLOAD SWAP1 PUSH2 0x100 EXP SWAP1 DIV PUSH20 0xFFFFFFFFFFFFFFFFFFFFFFFFFFFFFFFFFFFFFFFF AND PUSH20 0xFFFFFFFFFFFFFFFFFFFFFFFFFFFFFFFFFFFFFFFF AND PUSH4 0xFB31FF37 DUP5 PUSH1 0x40 MLOAD DUP3 PUSH4 0xFFFFFFFF AND PUSH1 0xE0 SHL DUP2 MSTORE PUSH1 0x4 ADD PUSH2 0x148 SWAP2 SWAP1 PUSH2 0x7A8 JUMP JUMPDEST PUSH1 0x0 PUSH1 0x40 MLOAD DUP1 DUP4 SUB DUP2 DUP7 GAS STATICCALL ISZERO DUP1 ISZERO PUSH2 0x165 JUMPI RETURNDATASIZE PUSH1 0x0 DUP1 RETURNDATACOPY RETURNDATASIZE PUSH1 0x0 REVERT JUMPDEST POP POP POP POP PUSH1 0x40 MLOAD RETURNDATASIZE PUSH1 0x0 DUP3 RETURNDATACOPY RETURNDATASIZE PUSH1 0x1F NOT PUSH1 0x1F DUP3 ADD AND DUP3 ADD DUP1 PUSH1 0x40 MSTORE POP DUP2 ADD SWAP1 PUSH2 0x18E SWAP2 SWAP1 PUSH2 0xE1A JUMP JUMPDEST SWAP1 POP DUP1 PUSH1 0x80 ADD MLOAD PUSH2 0x1D4 JUMPI PUSH1 0x40 MLOAD PUSH32 0x8C379A000000000000000000000000000000000000000000000000000000000 DUP2 MSTORE PUSH1 0x4 ADD PUSH2 0x1CB SWAP1 PUSH2 0xEC0 JUMP JUMPDEST PUSH1 0x40 MLOAD DUP1 SWAP2 SUB SWAP1 REVERT JUMPDEST PUSH1 0x0 PUSH1 0x1 PUSH1 0x0 DUP4 PUSH1 0x0 ADD MLOAD PUSH20 0xFFFFFFFFFFFFFFFFFFFFFFFFFFFFFFFFFFFFFFFF AND PUSH20 0xFFFFFFFFFFFFFFFFFFFFFFFFFFFFFFFFFFFFFFFF AND DUP2 MSTORE PUSH1 0x20 ADD SWAP1 DUP2 MSTORE PUSH1 0x20 ADD PUSH1 0x0 KECCAK256 DUP3 PUSH1 0x60 ADD MLOAD PUSH1 0x0 ADD MLOAD PUSH1 0x40 MLOAD PUSH2 0x22F SWAP2 SWAP1 PUSH2 0xF27 JUMP JUMPDEST SWAP1 DUP2 MSTORE PUSH1 0x20 ADD PUSH1 0x40 MLOAD DUP1 SWAP2 SUB SWAP1 KECCAK256 PUSH1 0x40 MLOAD DUP1 PUSH1 0x40 ADD PUSH1 0x40 MSTORE SWAP1 DUP2 PUSH1 0x0 DUP3 ADD SLOAD DUP2 MSTORE PUSH1 0x20 ADD PUSH1 0x1 DUP3 ADD SLOAD DUP2 MSTORE POP POP SWAP1 POP PUSH1 0x0 DUP2 PUSH1 0x0 ADD MLOAD EQ PUSH2 0x2AA JUMPI PUSH1 0x0 DUP2 PUSH1 0x0 ADD MLOAD DUP4 PUSH1 0xE0 ADD MLOAD PUSH2 0x280 SWAP2 SWAP1 PUSH2 0xF6D JUMP JUMPDEST SWAP1 POP PUSH3 0x15180 DUP3 PUSH1 0x20 ADD MLOAD PUSH2 0x295 SWAP2 SWAP1 PUSH2 0xFA1 JUMP JUMPDEST DUP2 LT ISZERO PUSH2 0x2A8 JUMPI PUSH1 0x0 SWAP4 POP POP POP POP PUSH2 0x350 JUMP JUMPDEST POP JUMPDEST PUSH1 0x40 MLOAD DUP1 PUSH1 0x40 ADD PUSH1 0x40 MSTORE DUP1 DUP4 PUSH1 0xE0 ADD MLOAD DUP2 MSTORE PUSH1 0x20 ADD DUP4 PUSH1 0x60 ADD MLOAD PUSH1 0x80 ADD MLOAD DUP2 MSTORE POP PUSH1 0x1 PUSH1 0x0 DUP5 PUSH1 0x0 ADD MLOAD PUSH20 0xFFFFFFFFFFFFFFFFFFFFFFFFFFFFFFFFFFFFFFFF AND PUSH20 0xFFFFFFFFFFFFFFFFFFFFFFFFFFFFFFFFFFFFFFFF AND DUP2 MSTORE PUSH1 0x20 ADD SWAP1 DUP2 MSTORE PUSH1 0x20 ADD PUSH1 0x0 KECCAK256 DUP4 PUSH1 0x60 ADD MLOAD PUSH1 0x0 ADD MLOAD PUSH1 0x40 MLOAD PUSH2 0x324 SWAP2 SWAP1 PUSH2 0xF27 JUMP JUMPDEST SWAP1 DUP2 MSTORE PUSH1 0x20 ADD PUSH1 0x40 MLOAD DUP1 SWAP2 SUB SWAP1 KECCAK256 PUSH1 0x0 DUP3 ADD MLOAD DUP2 PUSH1 0x0 ADD SSTORE PUSH1 0x20 DUP3 ADD MLOAD DUP2 PUSH1 0x1 ADD SSTORE SWAP1 POP POP PUSH1 0x1 SWAP3 POP POP POP JUMPDEST SWAP2 SWAP1 POP JUMP JUMPDEST PUSH1 0x0 DUP1 SLOAD SWAP1 PUSH2 0x100 EXP SWAP1 DIV PUSH20 0xFFFFFFFFFFFFFFFFFFFFFFFFFFFFFFFFFFFFFFFF AND DUP2 JUMP JUMPDEST PUSH1 0x1 PUSH1 0x20 MSTORE DUP2 PUSH1 0x0 MSTORE PUSH1 0x40 PUSH1 0x0 KECCAK256 DUP2 DUP1 MLOAD PUSH1 0x20 DUP2 ADD DUP3 ADD DUP1 MLOAD DUP5 DUP3 MSTORE PUSH1 0x20 DUP4 ADD PUSH1 0x20 DUP6 ADD KECCAK256 DUP2 DUP4 MSTORE DUP1 SWAP6 POP POP POP POP POP POP PUSH1 0x0 SWAP2 POP SWAP2 POP POP DUP1 PUSH1 0x0 ADD SLOAD SWAP1 DUP1 PUSH1 0x1 ADD SLOAD SWAP1 POP DUP3 JUMP JUMPDEST DUP1 PUSH1 0x0 DUP1 PUSH2 0x100 EXP DUP2 SLOAD DUP2 PUSH20 0xFFFFFFFFFFFFFFFFFFFFFFFFFFFFFFFFFFFFFFFF MUL NOT AND SWAP1 DUP4 PUSH20 0xFFFFFFFFFFFFFFFFFFFFFFFFFFFFFFFFFFFFFFFF AND MUL OR SWAP1 SSTORE POP POP JUMP JUMPDEST PUSH1 0x0 PUSH1 0x40 MLOAD SWAP1 POP SWAP1 JUMP JUMPDEST PUSH1 0x0 DUP1 REVERT JUMPDEST PUSH1 0x0 DUP1 REVERT JUMPDEST PUSH1 0x0 DUP2 SWAP1 POP SWAP2 SWAP1 POP JUMP JUMPDEST PUSH2 0x42A DUP2 PUSH2 0x417 JUMP JUMPDEST DUP2 EQ PUSH2 0x435 JUMPI PUSH1 0x0 DUP1 REVERT JUMPDEST POP JUMP JUMPDEST PUSH1 0x0 DUP2 CALLDATALOAD SWAP1 POP PUSH2 0x447 DUP2 PUSH2 0x421 JUMP JUMPDEST SWAP3 SWAP2 POP POP JUMP JUMPDEST PUSH1 0x0 PUSH1 0x20 DUP3 DUP5 SUB SLT ISZERO PUSH2 0x463 JUMPI PUSH2 0x462 PUSH2 0x40D JUMP JUMPDEST JUMPDEST PUSH1 0x0 PUSH2 0x471 DUP5 DUP3 DUP6 ADD PUSH2 0x438 JUMP JUMPDEST SWAP2 POP POP SWAP3 SWAP2 POP POP JUMP JUMPDEST PUSH1 0x0 DUP2 ISZERO ISZERO SWAP1 POP SWAP2 SWAP1 POP JUMP JUMPDEST PUSH2 0x48F DUP2 PUSH2 0x47A JUMP JUMPDEST DUP3 MSTORE POP POP JUMP JUMPDEST PUSH1 0x0 PUSH1 0x20 DUP3 ADD SWAP1 POP PUSH2 0x4AA PUSH1 0x0 DUP4 ADD DUP5 PUSH2 0x486 JUMP JUMPDEST SWAP3 SWAP2 POP POP JUMP JUMPDEST PUSH1 0x0 PUSH20 0xFFFFFFFFFFFFFFFFFFFFFFFFFFFFFFFFFFFFFFFF DUP3 AND SWAP1 POP SWAP2 SWAP1 POP JUMP JUMPDEST PUSH1 0x0 DUP2 SWAP1 POP SWAP2 SWAP1 POP JUMP JUMPDEST PUSH1 0x0 PUSH2 0x4F5 PUSH2 0x4F0 PUSH2 0x4EB DUP5 PUSH2 0x4B0 JUMP JUMPDEST PUSH2 0x4D0 JUMP JUMPDEST PUSH2 0x4B0 JUMP JUMPDEST SWAP1 POP SWAP2 SWAP1 POP JUMP JUMPDEST PUSH1 0x0 PUSH2 0x507 DUP3 PUSH2 0x4DA JUMP JUMPDEST SWAP1 POP SWAP2 SWAP1 POP JUMP JUMPDEST PUSH1 0x0 PUSH2 0x519 DUP3 PUSH2 0x4FC JUMP JUMPDEST SWAP1 POP SWAP2 SWAP1 POP JUMP JUMPDEST PUSH2 0x529 DUP2 PUSH2 0x50E JUMP JUMPDEST DUP3 MSTORE POP POP JUMP JUMPDEST PUSH1 0x0 PUSH1 0x20 DUP3 ADD SWAP1 POP PUSH2 0x544 PUSH1 0x0 DUP4 ADD DUP5 PUSH2 0x520 JUMP JUMPDEST SWAP3 SWAP2 POP POP JUMP JUMPDEST PUSH1 0x0 PUSH2 0x555 DUP3 PUSH2 0x4B0 JUMP JUMPDEST SWAP1 POP SWAP2 SWAP1 POP JUMP JUMPDEST PUSH2 0x565 DUP2 PUSH2 0x54A JUMP JUMPDEST DUP2 EQ PUSH2 0x570 JUMPI PUSH1 0x0 DUP1 REVERT JUMPDEST POP JUMP JUMPDEST PUSH1 0x0 DUP2 CALLDATALOAD SWAP1 POP PUSH2 0x582 DUP2 PUSH2 0x55C JUMP JUMPDEST SWAP3 SWAP2 POP POP JUMP JUMPDEST PUSH1 0x0 DUP1 REVERT JUMPDEST PUSH1 0x0 DUP1 REVERT JUMPDEST PUSH1 0x0 PUSH1 0x1F NOT PUSH1 0x1F DUP4 ADD AND SWAP1 POP SWAP2 SWAP1 POP JUMP JUMPDEST PUSH32 0x4E487B7100000000000000000000000000000000000000000000000000000000 PUSH1 0x0 MSTORE PUSH1 0x41 PUSH1 0x4 MSTORE PUSH1 0x24 PUSH1 0x0 REVERT JUMPDEST PUSH2 0x5DB DUP3 PUSH2 0x592 JUMP JUMPDEST DUP2 ADD DUP2 DUP2 LT PUSH8 0xFFFFFFFFFFFFFFFF DUP3 GT OR ISZERO PUSH2 0x5FA JUMPI PUSH2 0x5F9 PUSH2 0x5A3 JUMP JUMPDEST JUMPDEST DUP1 PUSH1 0x40 MSTORE POP POP POP JUMP JUMPDEST PUSH1 0x0 PUSH2 0x60D PUSH2 0x403 JUMP JUMPDEST SWAP1 POP PUSH2 0x619 DUP3 DUP3 PUSH2 0x5D2 JUMP JUMPDEST SWAP2 SWAP1 POP JUMP JUMPDEST PUSH1 0x0 PUSH8 0xFFFFFFFFFFFFFFFF DUP3 GT ISZERO PUSH2 0x639 JUMPI PUSH2 0x638 PUSH2 0x5A3 JUMP JUMPDEST JUMPDEST PUSH2 0x642 DUP3 PUSH2 0x592 JUMP JUMPDEST SWAP1 POP PUSH1 0x20 DUP2 ADD SWAP1 POP SWAP2 SWAP1 POP JUMP JUMPDEST DUP3 DUP2 DUP4 CALLDATACOPY PUSH1 0x0 DUP4 DUP4 ADD MSTORE POP POP POP JUMP JUMPDEST PUSH1 0x0 PUSH2 0x671 PUSH2 0x66C DUP5 PUSH2 0x61E JUMP JUMPDEST PUSH2 0x603 JUMP JUMPDEST SWAP1 POP DUP3 DUP2 MSTORE PUSH1 0x20 DUP2 ADD DUP5 DUP5 DUP5 ADD GT ISZERO PUSH2 0x68D JUMPI PUSH2 0x68C PUSH2 0x58D JUMP JUMPDEST JUMPDEST PUSH2 0x698 DUP5 DUP3 DUP6 PUSH2 0x64F JUMP JUMPDEST POP SWAP4 SWAP3 POP POP POP JUMP JUMPDEST PUSH1 0x0 DUP3 PUSH1 0x1F DUP4 ADD SLT PUSH2 0x6B5 JUMPI PUSH2 0x6B4 PUSH2 0x588 JUMP JUMPDEST JUMPDEST DUP2 CALLDATALOAD PUSH2 0x6C5 DUP5 DUP3 PUSH1 0x20 DUP7 ADD PUSH2 0x65E JUMP JUMPDEST SWAP2 POP POP SWAP3 SWAP2 POP POP JUMP JUMPDEST PUSH1 0x0 DUP1 PUSH1 0x40 DUP4 DUP6 SUB SLT ISZERO PUSH2 0x6E5 JUMPI PUSH2 0x6E4 PUSH2 0x40D JUMP JUMPDEST JUMPDEST PUSH1 0x0 PUSH2 0x6F3 DUP6 DUP3 DUP7 ADD PUSH2 0x573 JUMP JUMPDEST SWAP3 POP POP PUSH1 0x20 DUP4 ADD CALLDATALOAD PUSH8 0xFFFFFFFFFFFFFFFF DUP2 GT ISZERO PUSH2 0x714 JUMPI PUSH2 0x713 PUSH2 0x412 JUMP JUMPDEST JUMPDEST PUSH2 0x720 DUP6 DUP3 DUP7 ADD PUSH2 0x6A0 JUMP JUMPDEST SWAP2 POP POP SWAP3 POP SWAP3 SWAP1 POP JUMP JUMPDEST PUSH1 0x0 DUP2 SWAP1 POP SWAP2 SWAP1 POP JUMP JUMPDEST PUSH2 0x73D DUP2 PUSH2 0x72A JUMP JUMPDEST DUP3 MSTORE POP POP JUMP JUMPDEST PUSH1 0x0 PUSH1 0x40 DUP3 ADD SWAP1 POP PUSH2 0x758 PUSH1 0x0 DUP4 ADD DUP6 PUSH2 0x734 JUMP JUMPDEST PUSH2 0x765 PUSH1 0x20 DUP4 ADD DUP5 PUSH2 0x734 JUMP JUMPDEST SWAP4 SWAP3 POP POP POP JUMP JUMPDEST PUSH1 0x0 PUSH1 0x20 DUP3 DUP5 SUB SLT ISZERO PUSH2 0x782 JUMPI PUSH2 0x781 PUSH2 0x40D JUMP JUMPDEST JUMPDEST PUSH1 0x0 PUSH2 0x790 DUP5 DUP3 DUP6 ADD PUSH2 0x573 JUMP JUMPDEST SWAP2 POP POP SWAP3 SWAP2 POP POP JUMP JUMPDEST PUSH2 0x7A2 DUP2 PUSH2 0x417 JUMP JUMPDEST DUP3 MSTORE POP POP JUMP JUMPDEST PUSH1 0x0 PUSH1 0x20 DUP3 ADD SWAP1 POP PUSH2 0x7BD PUSH1 0x0 DUP4 ADD DUP5 PUSH2 0x799 JUMP JUMPDEST SWAP3 SWAP2 POP POP JUMP JUMPDEST PUSH1 0x0 DUP1 REVERT JUMPDEST PUSH1 0x0 DUP1 REVERT JUMPDEST PUSH1 0x0 DUP2 MLOAD SWAP1 POP PUSH2 0x7DC DUP2 PUSH2 0x55C JUMP JUMPDEST SWAP3 SWAP2 POP POP JUMP JUMPDEST PUSH1 0x0 JUMPDEST DUP4 DUP2 LT ISZERO PUSH2 0x800 JUMPI DUP1 DUP3 ADD MLOAD DUP2 DUP5 ADD MSTORE PUSH1 0x20 DUP2 ADD SWAP1 POP PUSH2 0x7E5 JUMP JUMPDEST PUSH1 0x0 DUP5 DUP5 ADD MSTORE POP POP POP POP JUMP JUMPDEST PUSH1 0x0 PUSH2 0x81F PUSH2 0x81A DUP5 PUSH2 0x61E JUMP JUMPDEST PUSH2 0x603 JUMP JUMPDEST SWAP1 POP DUP3 DUP2 MSTORE PUSH1 0x20 DUP2 ADD DUP5 DUP5 DUP5 ADD GT ISZERO PUSH2 0x83B JUMPI PUSH2 0x83A PUSH2 0x58D JUMP JUMPDEST JUMPDEST PUSH2 0x846 DUP5 DUP3 DUP6 PUSH2 0x7E2 JUMP JUMPDEST POP SWAP4 SWAP3 POP POP POP JUMP JUMPDEST PUSH1 0x0 DUP3 PUSH1 0x1F DUP4 ADD SLT PUSH2 0x863 JUMPI PUSH2 0x862 PUSH2 0x588 JUMP JUMPDEST JUMPDEST DUP2 MLOAD PUSH2 0x873 DUP5 DUP3 PUSH1 0x20 DUP7 ADD PUSH2 0x80C JUMP JUMPDEST SWAP2 POP POP SWAP3 SWAP2 POP POP JUMP JUMPDEST PUSH1 0x0 PUSH8 0xFFFFFFFFFFFFFFFF DUP3 GT ISZERO PUSH2 0x897 JUMPI PUSH2 0x896 PUSH2 0x5A3 JUMP JUMPDEST JUMPDEST PUSH1 0x20 DUP3 MUL SWAP1 POP PUSH1 0x20 DUP2 ADD SWAP1 POP SWAP2 SWAP1 POP JUMP JUMPDEST PUSH1 0x0 DUP1 REVERT JUMPDEST PUSH1 0x0 PUSH2 0x8C0 PUSH2 0x8BB DUP5 PUSH2 0x87C JUMP JUMPDEST PUSH2 0x603 JUMP JUMPDEST SWAP1 POP DUP1 DUP4 DUP3 MSTORE PUSH1 0x20 DUP3 ADD SWAP1 POP PUSH1 0x20 DUP5 MUL DUP4 ADD DUP6 DUP2 GT ISZERO PUSH2 0x8E3 JUMPI PUSH2 0x8E2 PUSH2 0x8A8 JUMP JUMPDEST JUMPDEST DUP4 JUMPDEST DUP2 DUP2 LT ISZERO PUSH2 0x92A JUMPI DUP1 MLOAD PUSH8 0xFFFFFFFFFFFFFFFF DUP2 GT ISZERO PUSH2 0x908 JUMPI PUSH2 0x907 PUSH2 0x588 JUMP JUMPDEST JUMPDEST DUP1 DUP7 ADD PUSH2 0x915 DUP10 DUP3 PUSH2 0x84E JUMP JUMPDEST DUP6 MSTORE PUSH1 0x20 DUP6 ADD SWAP5 POP POP POP PUSH1 0x20 DUP2 ADD SWAP1 POP PUSH2 0x8E5 JUMP JUMPDEST POP POP POP SWAP4 SWAP3 POP POP POP JUMP JUMPDEST PUSH1 0x0 DUP3 PUSH1 0x1F DUP4 ADD SLT PUSH2 0x949 JUMPI PUSH2 0x948 PUSH2 0x588 JUMP JUMPDEST JUMPDEST DUP2 MLOAD PUSH2 0x959 DUP5 DUP3 PUSH1 0x20 DUP7 ADD PUSH2 0x8AD JUMP JUMPDEST SWAP2 POP POP SWAP3 SWAP2 POP POP JUMP JUMPDEST PUSH1 0x0 PUSH8 0xFFFFFFFFFFFFFFFF DUP3 GT ISZERO PUSH2 0x97D JUMPI PUSH2 0x97C PUSH2 0x5A3 JUMP JUMPDEST JUMPDEST PUSH1 0x20 DUP3 MUL SWAP1 POP PUSH1 0x20 DUP2 ADD SWAP1 POP SWAP2 SWAP1 POP JUMP JUMPDEST PUSH2 0x997 DUP2 PUSH2 0x72A JUMP JUMPDEST DUP2 EQ PUSH2 0x9A2 JUMPI PUSH1 0x0 DUP1 REVERT JUMPDEST POP JUMP JUMPDEST PUSH1 0x0 DUP2 MLOAD SWAP1 POP PUSH2 0x9B4 DUP2 PUSH2 0x98E JUMP JUMPDEST SWAP3 SWAP2 POP POP JUMP JUMPDEST PUSH1 0x0 PUSH2 0x9CD PUSH2 0x9C8 DUP5 PUSH2 0x962 JUMP JUMPDEST PUSH2 0x603 JUMP JUMPDEST SWAP1 POP DUP1 DUP4 DUP3 MSTORE PUSH1 0x20 DUP3 ADD SWAP1 POP PUSH1 0x20 DUP5 MUL DUP4 ADD DUP6 DUP2 GT ISZERO PUSH2 0x9F0 JUMPI PUSH2 0x9EF PUSH2 0x8A8 JUMP JUMPDEST JUMPDEST DUP4 JUMPDEST DUP2 DUP2 LT ISZERO PUSH2 0xA19 JUMPI DUP1 PUSH2 0xA05 DUP9 DUP3 PUSH2 0x9A5 JUMP JUMPDEST DUP5 MSTORE PUSH1 0x20 DUP5 ADD SWAP4 POP POP PUSH1 0x20 DUP2 ADD SWAP1 POP PUSH2 0x9F2 JUMP JUMPDEST POP POP POP SWAP4 SWAP3 POP POP POP JUMP JUMPDEST PUSH1 0x0 DUP3 PUSH1 0x1F DUP4 ADD SLT PUSH2 0xA38 JUMPI PUSH2 0xA37 PUSH2 0x588 JUMP JUMPDEST JUMPDEST DUP2 MLOAD PUSH2 0xA48 DUP5 DUP3 PUSH1 0x20 DUP7 ADD PUSH2 0x9BA JUMP JUMPDEST SWAP2 POP POP SWAP3 SWAP2 POP POP JUMP JUMPDEST PUSH1 0x0 DUP2 MLOAD SWAP1 POP PUSH2 0xA60 DUP2 PUSH2 0x421 JUMP JUMPDEST SWAP3 SWAP2 POP POP JUMP JUMPDEST PUSH1 0x0 PUSH8 0xFFFFFFFFFFFFFFFF DUP3 GT ISZERO PUSH2 0xA81 JUMPI PUSH2 0xA80 PUSH2 0x5A3 JUMP JUMPDEST JUMPDEST PUSH2 0xA8A DUP3 PUSH2 0x592 JUMP JUMPDEST SWAP1 POP PUSH1 0x20 DUP2 ADD SWAP1 POP SWAP2 SWAP1 POP JUMP JUMPDEST PUSH1 0x0 PUSH2 0xAAA PUSH2 0xAA5 DUP5 PUSH2 0xA66 JUMP JUMPDEST PUSH2 0x603 JUMP JUMPDEST SWAP1 POP DUP3 DUP2 MSTORE PUSH1 0x20 DUP2 ADD DUP5 DUP5 DUP5 ADD GT ISZERO PUSH2 0xAC6 JUMPI PUSH2 0xAC5 PUSH2 0x58D JUMP JUMPDEST JUMPDEST PUSH2 0xAD1 DUP5 DUP3 DUP6 PUSH2 0x7E2 JUMP JUMPDEST POP SWAP4 SWAP3 POP POP POP JUMP JUMPDEST PUSH1 0x0 DUP3 PUSH1 0x1F DUP4 ADD SLT PUSH2 0xAEE JUMPI PUSH2 0xAED PUSH2 0x588 JUMP JUMPDEST JUMPDEST DUP2 MLOAD PUSH2 0xAFE DUP5 DUP3 PUSH1 0x20 DUP7 ADD PUSH2 0xA97 JUMP JUMPDEST SWAP2 POP POP SWAP3 SWAP2 POP POP JUMP JUMPDEST PUSH1 0x0 PUSH1 0xE0 DUP3 DUP5 SUB SLT ISZERO PUSH2 0xB1D JUMPI PUSH2 0xB1C PUSH2 0x7C3 JUMP JUMPDEST JUMPDEST PUSH2 0xB27 PUSH1 0xE0 PUSH2 0x603 JUMP JUMPDEST SWAP1 POP PUSH1 0x0 DUP3 ADD MLOAD PUSH8 0xFFFFFFFFFFFFFFFF DUP2 GT ISZERO PUSH2 0xB47 JUMPI PUSH2 0xB46 PUSH2 0x7C8 JUMP JUMPDEST JUMPDEST PUSH2 0xB53 DUP5 DUP3 DUP6 ADD PUSH2 0x84E JUMP JUMPDEST PUSH1 0x0 DUP4 ADD MSTORE POP PUSH1 0x20 DUP3 ADD MLOAD PUSH8 0xFFFFFFFFFFFFFFFF DUP2 GT ISZERO PUSH2 0xB77 JUMPI PUSH2 0xB76 PUSH2 0x7C8 JUMP JUMPDEST JUMPDEST PUSH2 0xB83 DUP5 DUP3 DUP6 ADD PUSH2 0x84E JUMP JUMPDEST PUSH1 0x20 DUP4 ADD MSTORE POP PUSH1 0x40 DUP3 ADD MLOAD PUSH8 0xFFFFFFFFFFFFFFFF DUP2 GT ISZERO PUSH2 0xBA7 JUMPI PUSH2 0xBA6 PUSH2 0x7C8 JUMP JUMPDEST JUMPDEST PUSH2 0xBB3 DUP5 DUP3 DUP6 ADD PUSH2 0x934 JUMP JUMPDEST PUSH1 0x40 DUP4 ADD MSTORE POP PUSH1 0x60 DUP3 ADD MLOAD PUSH8 0xFFFFFFFFFFFFFFFF DUP2 GT ISZERO PUSH2 0xBD7 JUMPI PUSH2 0xBD6 PUSH2 0x7C8 JUMP JUMPDEST JUMPDEST PUSH2 0xBE3 DUP5 DUP3 DUP6 ADD PUSH2 0xA23 JUMP JUMPDEST PUSH1 0x60 DUP4 ADD MSTORE POP PUSH1 0x80 PUSH2 0xBF7 DUP5 DUP3 DUP6 ADD PUSH2 0x9A5 JUMP JUMPDEST PUSH1 0x80 DUP4 ADD MSTORE POP PUSH1 0xA0 PUSH2 0xC0B DUP5 DUP3 DUP6 ADD PUSH2 0xA51 JUMP JUMPDEST PUSH1 0xA0 DUP4 ADD MSTORE POP PUSH1 0xC0 DUP3 ADD MLOAD PUSH8 0xFFFFFFFFFFFFFFFF DUP2 GT ISZERO PUSH2 0xC2F JUMPI PUSH2 0xC2E PUSH2 0x7C8 JUMP JUMPDEST JUMPDEST PUSH2 0xC3B DUP5 DUP3 DUP6 ADD PUSH2 0xAD9 JUMP JUMPDEST PUSH1 0xC0 DUP4 ADD MSTORE POP SWAP3 SWAP2 POP POP JUMP JUMPDEST PUSH2 0xC50 DUP2 PUSH2 0x47A JUMP JUMPDEST DUP2 EQ PUSH2 0xC5B JUMPI PUSH1 0x0 DUP1 REVERT JUMPDEST POP JUMP JUMPDEST PUSH1 0x0 DUP2 MLOAD SWAP1 POP PUSH2 0xC6D DUP2 PUSH2 0xC47 JUMP JUMPDEST SWAP3 SWAP2 POP POP JUMP JUMPDEST PUSH1 0x6 DUP2 LT PUSH2 0xC80 JUMPI PUSH1 0x0 DUP1 REVERT JUMPDEST POP JUMP JUMPDEST PUSH1 0x0 DUP2 MLOAD SWAP1 POP PUSH2 0xC92 DUP2 PUSH2 0xC73 JUMP JUMPDEST SWAP3 SWAP2 POP POP JUMP JUMPDEST PUSH1 0x0 PUSH2 0x140 DUP3 DUP5 SUB SLT ISZERO PUSH2 0xCAF JUMPI PUSH2 0xCAE PUSH2 0x7C3 JUMP JUMPDEST JUMPDEST PUSH2 0xCBA PUSH2 0x140 PUSH2 0x603 JUMP JUMPDEST SWAP1 POP PUSH1 0x0 PUSH2 0xCCA DUP5 DUP3 DUP6 ADD PUSH2 0x7CD JUMP JUMPDEST PUSH1 0x0 DUP4 ADD MSTORE POP PUSH1 0x20 DUP3 ADD MLOAD PUSH8 0xFFFFFFFFFFFFFFFF DUP2 GT ISZERO PUSH2 0xCEE JUMPI PUSH2 0xCED PUSH2 0x7C8 JUMP JUMPDEST JUMPDEST PUSH2 0xCFA DUP5 DUP3 DUP6 ADD PUSH2 0x84E JUMP JUMPDEST PUSH1 0x20 DUP4 ADD MSTORE POP PUSH1 0x40 DUP3 ADD MLOAD PUSH8 0xFFFFFFFFFFFFFFFF DUP2 GT ISZERO PUSH2 0xD1E JUMPI PUSH2 0xD1D PUSH2 0x7C8 JUMP JUMPDEST JUMPDEST PUSH2 0xD2A DUP5 DUP3 DUP6 ADD PUSH2 0x84E JUMP JUMPDEST PUSH1 0x40 DUP4 ADD MSTORE POP PUSH1 0x60 DUP3 ADD MLOAD PUSH8 0xFFFFFFFFFFFFFFFF DUP2 GT ISZERO PUSH2 0xD4E JUMPI PUSH2 0xD4D PUSH2 0x7C8 JUMP JUMPDEST JUMPDEST PUSH2 0xD5A DUP5 DUP3 DUP6 ADD PUSH2 0xB07 JUMP JUMPDEST PUSH1 0x60 DUP4 ADD MSTORE POP PUSH1 0x80 PUSH2 0xD6E DUP5 DUP3 DUP6 ADD PUSH2 0xC5E JUMP JUMPDEST PUSH1 0x80 DUP4 ADD MSTORE POP PUSH1 0xA0 DUP3 ADD MLOAD PUSH8 0xFFFFFFFFFFFFFFFF DUP2 GT ISZERO PUSH2 0xD92 JUMPI PUSH2 0xD91 PUSH2 0x7C8 JUMP JUMPDEST JUMPDEST PUSH2 0xD9E DUP5 DUP3 DUP6 ADD PUSH2 0x84E JUMP JUMPDEST PUSH1 0xA0 DUP4 ADD MSTORE POP PUSH1 0xC0 DUP3 ADD MLOAD PUSH8 0xFFFFFFFFFFFFFFFF DUP2 GT ISZERO PUSH2 0xDC2 JUMPI PUSH2 0xDC1 PUSH2 0x7C8 JUMP JUMPDEST JUMPDEST PUSH2 0xDCE DUP5 DUP3 DUP6 ADD PUSH2 0x84E JUMP JUMPDEST PUSH1 0xC0 DUP4 ADD MSTORE POP PUSH1 0xE0 PUSH2 0xDE2 DUP5 DUP3 DUP6 ADD PUSH2 0x9A5 JUMP JUMPDEST PUSH1 0xE0 DUP4 ADD MSTORE POP PUSH2 0x100 PUSH2 0xDF7 DUP5 DUP3 DUP6 ADD PUSH2 0xC5E JUMP JUMPDEST PUSH2 0x100 DUP4 ADD MSTORE POP PUSH2 0x120 PUSH2 0xE0D DUP5 DUP3 DUP6 ADD PUSH2 0xC83 JUMP JUMPDEST PUSH2 0x120 DUP4 ADD MSTORE POP SWAP3 SWAP2 POP POP JUMP JUMPDEST PUSH1 0x0 PUSH1 0x20 DUP3 DUP5 SUB SLT ISZERO PUSH2 0xE30 JUMPI PUSH2 0xE2F PUSH2 0x40D JUMP JUMPDEST JUMPDEST PUSH1 0x0 DUP3 ADD MLOAD PUSH8 0xFFFFFFFFFFFFFFFF DUP2 GT ISZERO PUSH2 0xE4E JUMPI PUSH2 0xE4D PUSH2 0x412 JUMP JUMPDEST JUMPDEST PUSH2 0xE5A DUP5 DUP3 DUP6 ADD PUSH2 0xC98 JUMP JUMPDEST SWAP2 POP POP SWAP3 SWAP2 POP POP JUMP JUMPDEST PUSH1 0x0 DUP3 DUP3 MSTORE PUSH1 0x20 DUP3 ADD SWAP1 POP SWAP3 SWAP2 POP POP JUMP JUMPDEST PUSH32 0x506861726D616379206E6F7420636F6E6669726D656400000000000000000000 PUSH1 0x0 DUP3 ADD MSTORE POP JUMP JUMPDEST PUSH1 0x0 PUSH2 0xEAA PUSH1 0x16 DUP4 PUSH2 0xE63 JUMP JUMPDEST SWAP2 POP PUSH2 0xEB5 DUP3 PUSH2 0xE74 JUMP JUMPDEST PUSH1 0x20 DUP3 ADD SWAP1 POP SWAP2 SWAP1 POP JUMP JUMPDEST PUSH1 0x0 PUSH1 0x20 DUP3 ADD SWAP1 POP DUP2 DUP2 SUB PUSH1 0x0 DUP4 ADD MSTORE PUSH2 0xED9 DUP2 PUSH2 0xE9D JUMP JUMPDEST SWAP1 POP SWAP2 SWAP1 POP JUMP JUMPDEST PUSH1 0x0 DUP2 MLOAD SWAP1 POP SWAP2 SWAP1 POP JUMP JUMPDEST PUSH1 0x0 DUP2 SWAP1 POP SWAP3 SWAP2 POP POP JUMP JUMPDEST PUSH1 0x0 PUSH2 0xF01 DUP3 PUSH2 0xEE0 JUMP JUMPDEST PUSH2 0xF0B DUP2 DUP6 PUSH2 0xEEB JUMP JUMPDEST SWAP4 POP PUSH2 0xF1B DUP2 DUP6 PUSH1 0x20 DUP7 ADD PUSH2 0x7E2 JUMP JUMPDEST DUP1 DUP5 ADD SWAP2 POP POP SWAP3 SWAP2 POP POP JUMP JUMPDEST PUSH1 0x0 PUSH2 0xF33 DUP3 DUP5 PUSH2 0xEF6 JUMP JUMPDEST SWAP2 POP DUP2 SWAP1 POP SWAP3 SWAP2 POP POP JUMP JUMPDEST PUSH32 0x4E487B7100000000000000000000000000000000000000000000000000000000 PUSH1 0x0 MSTORE PUSH1 0x11 PUSH1 0x4 MSTORE PUSH1 0x24 PUSH1 0x0 REVERT JUMPDEST PUSH1 0x0 PUSH2 0xF78 DUP3 PUSH2 0x72A JUMP JUMPDEST SWAP2 POP PUSH2 0xF83 DUP4 PUSH2 0x72A JUMP JUMPDEST SWAP3 POP DUP3 DUP3 SUB SWAP1 POP DUP2 DUP2 GT ISZERO PUSH2 0xF9B JUMPI PUSH2 0xF9A PUSH2 0xF3E JUMP JUMPDEST JUMPDEST SWAP3 SWAP2 POP POP JUMP JUMPDEST PUSH1 0x0 PUSH2 0xFAC DUP3 PUSH2 0x72A JUMP JUMPDEST SWAP2 POP PUSH2 0xFB7 DUP4 PUSH2 0x72A JUMP JUMPDEST SWAP3 POP DUP3 DUP3 MUL PUSH2 0xFC5 DUP2 PUSH2 0x72A JUMP JUMPDEST SWAP2 POP DUP3 DUP3 DIV DUP5 EQ DUP4 ISZERO OR PUSH2 0xFDC JUMPI PUSH2 0xFDB PUSH2 0xF3E JUMP JUMPDEST JUMPDEST POP SWAP3 SWAP2 POP POP JUMP INVALID LOG2 PUSH5 0x6970667358 0x22 SLT KECCAK256 0x2E ORIGIN 0xCD PUSH14 0x2D8194F931397FC839F286589BD8 0xEE 0xAF CALLCODE 0xCA DUP15 BYTE 0x1F 0x24 SUB 0xDB CODESIZE 0x2C 0xBC PUSH14 0x64736F6C634300081C0033000000 "},"methodIdentifiers":{"illnessHistories(address,string)":"97a25401","registry()":"7b103999","setRegistry(address)":"a91ee0dc","verify(bytes32)":"75e36616"}}}}}