{
  "_format": "hh-sol-artifact-1",
  "contractName": "AutoReimbursement",
  "sourceName": "contracts/AutoReimbursement.sol",
  "abi": [
    {
      "inputs": [
        {
          "internalType": "address",
          "name": "_registry",
          "type": "address"
        }
      ],
      "stateMutability": "nonpayable",
      "type": "constructor"
    },
    {
      "anonymous": false,
      "inputs": [
        {
          "indexed": false,
          "internalType": "bytes32",
          "name": "recordId",
          "type": "bytes32"
        },
        {
          "indexed": false,
          "internalType": "address",
          "name": "patient",
          "type": "address"
        },
        {
          "indexed": false,
          "internalType": "uint256",
          "name": "amount",
          "type": "uint256"
        }
      ],
      "name": "PaymentSent",
      "type": "event"
    },
    {
      "inputs": [
        {
          "internalType": "string",
          "name": "",
          "type": "string"
        }
      ],
      "name": "drugPrices",
      "outputs": [
        {
          "internalType": "uint256",
          "name": "",
          "type": "uint256"
        }
      ],
      "stateMutability": "view",
      "type": "function"
    },
    {
      "inputs": [],
      "name": "owner",
      "outputs": [
        {
          "internalType": "address",
          "name": "",
          "type": "address"
        }
      ],
      "stateMutability": "view",
      "type": "function"
    },
    {
      "inputs": [],
      "name": "registry",
      "outputs": [
        {
          "internalType": "contract IMedicalFlowRegistry",
          "name": "",
          "type": "address"
        }
      ],
      "stateMutability": "view",
      "type": "function"
    },
    {
      "inputs": [
        {
          "internalType": "bytes32",
          "name": "recordId",
          "type": "bytes32"
        }
      ],
      "name": "reimburse",
      "outputs": [],
      "stateMutability": "nonpayable",
      "type": "function"
    },
    {
      "inputs": [
        {
          "internalType": "string",
          "name": "",
          "type": "string"
        },
        {
          "internalType": "string",
          "name": "",
          "type": "string"
        }
      ],
      "name": "reimbursementRates",
      "outputs": [
        {
          "internalType": "uint256",
          "name": "",
          "type": "uint256"
        }
      ],
      "stateMutability": "view",
      "type": "function"
    },
    {
      "inputs": [
        {
          "internalType": "string",
          "name": "drug",
          "type": "string"
        },
        {
          "internalType": "uint256",
          "name": "price",
          "type": "uint256"
        }
      ],
      "name": "setDrugPrice",
      "outputs": [],
      "stateMutability": "nonpayable",
      "type": "function"
    },
    {
      "inputs": [
        {
          "internalType": "address",
          "name": "_registry",
          "type": "address"
        }
      ],
      "name": "setRegistry",
      "outputs": [],
      "stateMutability": "nonpayable",
      "type": "function"
    },
    {
      "inputs": [
        {
          "internalType": "string",
          "name": "province",
          "type": "string"
        },
        {
          "internalType": "string",
          "name": "drug",
          "type": "string"
        },
        {
          "internalType": "uint256",
          "name": "rate",
          "type": "uint256"
        }
      ],
      "name": "setReimbursementRate",
      "outputs": [],
      "stateMutability": "nonpayable",
      "type": "function"
    },
    {
      "stateMutability": "payable",
      "type": "receive"
    }
  ],
  "bytecode": "0x608060405234801561001057600080fd5b506040516114d63803806114d68339818101604052810190610032919061011c565b336000806101000a81548173ffffffffffffffffffffffffffffffffffffffff021916908373ffffffffffffffffffffffffffffffffffffffff16021790555080600160006101000a81548173ffffffffffffffffffffffffffffffffffffffff021916908373ffffffffffffffffffffffffffffffffffffffff16021790555050610149565b600080fd5b600073ffffffffffffffffffffffffffffffffffffffff82169050919050565b60006100e9826100be565b9050919050565b6100f9816100de565b811461010457600080fd5b50565b600081519050610116816100f0565b92915050565b600060208284031215610132576101316100b9565b5b600061014084828501610107565b91505092915050565b61137e806101586000396000f3fe60806040526004361061007f5760003560e01c80638da5cb5b1161004e5780638da5cb5b146101455780638e61032814610170578063a91ee0dc14610199578063fd3936a0146101c257610086565b80630ec3458a1461008b5780637b103999146100c85780637b86200e146100f3578063881bd6111461011c57610086565b3661008657005b600080fd5b34801561009757600080fd5b506100b260048036038101906100ad919061093e565b6101ff565b6040516100bf91906109cf565b60405180910390f35b3480156100d457600080fd5b506100dd610250565b6040516100ea9190610a69565b60405180910390f35b3480156100ff57600080fd5b5061011a60048036038101906101159190610ab0565b610276565b005b34801561012857600080fd5b50610143600480360381019061013e9190610b3b565b610348565b005b34801561015157600080fd5b5061015a6103fd565b6040516101679190610bb8565b60405180910390f35b34801561017c57600080fd5b5061019760048036038101906101929190610c09565b610421565b005b3480156101a557600080fd5b506101c060048036038101906101bb9190610c62565b6106e4565b005b3480156101ce57600080fd5b506101e960048036038101906101e49190610c8f565b6107b6565b6040516101f691906109cf565b60405180910390f35b60038280516020810182018051848252602083016020850120818352809550505050505081805160208101820180518482526020830160208501208183528095505050505050600091509150505481565b600160009054906101000a900473ffffffffffffffffffffffffffffffffffffffff1681565b60008054906101000a900473ffffffffffffffffffffffffffffffffffffffff1673ffffffffffffffffffffffffffffffffffffffff163373ffffffffffffffffffffffffffffffffffffffff1614610304576040517f08c379a00000000000000000000000000000000000000000000000000000000081526004016102fb90610d35565b60405180910390fd5b806003846040516103159190610dc6565b9081526020016040518091039020836040516103319190610dc6565b908152602001604051809103902081905550505050565b60008054906101000a900473ffffffffffffffffffffffffffffffffffffffff1673ffffffffffffffffffffffffffffffffffffffff163373ffffffffffffffffffffffffffffffffffffffff16146103d6576040517f08c379a00000000000000000000000000000000000000000000000000000000081526004016103cd90610d35565b60405180910390fd5b806002836040516103e79190610dc6565b9081526020016040518091039020819055505050565b60008054906101000a900473ffffffffffffffffffffffffffffffffffffffff1681565b600080600080600160009054906101000a900473ffffffffffffffffffffffffffffffffffffffff1673ffffffffffffffffffffffffffffffffffffffff1663213681cd866040518263ffffffff1660e01b81526004016104829190610dec565b600060405180830381865afa15801561049f573d6000803e3d6000fd5b505050506040513d6000823e3d601f19601f820116820180604052508101906104c8919061104a565b93509350935093508051825114610514576040517f08c379a000000000000000000000000000000000000000000000000000000000815260040161050b90611151565b60405180910390fd5b6000805b8351811015610616576000600285838151811061053857610537611171565b5b602002602001015160405161054d9190610dc6565b908152602001604051809103902054905060006003876040516105709190610dc6565b908152602001604051809103902086848151811061059157610590611171565b5b60200260200101516040516105a69190610dc6565b908152602001604051809103902054905060006064828786815181106105cf576105ce611171565b5b6020026020010151856105e291906111cf565b6105ec91906111cf565b6105f69190611240565b905080856106049190611271565b94505050508080600101915050610518565b508047101561065a576040517f08c379a0000000000000000000000000000000000000000000000000000000008152600401610651906112f1565b60405180910390fd5b8473ffffffffffffffffffffffffffffffffffffffff166108fc829081150290604051600060405180830381858888f193505050501580156106a0573d6000803e3d6000fd5b507fa60265aa64e6f4cfa01be70af6823d2761a718e87ac8d0c24c27604e7a0648f78686836040516106d493929190611311565b60405180910390a1505050505050565b60008054906101000a900473ffffffffffffffffffffffffffffffffffffffff1673ffffffffffffffffffffffffffffffffffffffff163373ffffffffffffffffffffffffffffffffffffffff1614610772576040517f08c379a000000000000000000000000000000000000000000000000000000000815260040161076990610d35565b60405180910390fd5b80600160006101000a81548173ffffffffffffffffffffffffffffffffffffffff021916908373ffffffffffffffffffffffffffffffffffffffff16021790555050565b6002818051602081018201805184825260208301602085012081835280955050505050506000915090505481565b6000604051905090565b600080fd5b600080fd5b600080fd5b600080fd5b6000601f19601f8301169050919050565b7f4e487b7100000000000000000000000000000000000000000000000000000000600052604160045260246000fd5b61084b82610802565b810181811067ffffffffffffffff8211171561086a57610869610813565b5b80604052505050565b600061087d6107e4565b90506108898282610842565b919050565b600067ffffffffffffffff8211156108a9576108a8610813565b5b6108b282610802565b9050602081019050919050565b82818337600083830152505050565b60006108e16108dc8461088e565b610873565b9050828152602081018484840111156108fd576108fc6107fd565b5b6109088482856108bf565b509392505050565b600082601f830112610925576109246107f8565b5b81356109358482602086016108ce565b91505092915050565b60008060408385031215610955576109546107ee565b5b600083013567ffffffffffffffff811115610973576109726107f3565b5b61097f85828601610910565b925050602083013567ffffffffffffffff8111156109a05761099f6107f3565b5b6109ac85828601610910565b9150509250929050565b6000819050919050565b6109c9816109b6565b82525050565b60006020820190506109e460008301846109c0565b92915050565b600073ffffffffffffffffffffffffffffffffffffffff82169050919050565b6000819050919050565b6000610a2f610a2a610a25846109ea565b610a0a565b6109ea565b9050919050565b6000610a4182610a14565b9050919050565b6000610a5382610a36565b9050919050565b610a6381610a48565b82525050565b6000602082019050610a7e6000830184610a5a565b92915050565b610a8d816109b6565b8114610a9857600080fd5b50565b600081359050610aaa81610a84565b92915050565b600080600060608486031215610ac957610ac86107ee565b5b600084013567ffffffffffffffff811115610ae757610ae66107f3565b5b610af386828701610910565b935050602084013567ffffffffffffffff811115610b1457610b136107f3565b5b610b2086828701610910565b9250506040610b3186828701610a9b565b9150509250925092565b60008060408385031215610b5257610b516107ee565b5b600083013567ffffffffffffffff811115610b7057610b6f6107f3565b5b610b7c85828601610910565b9250506020610b8d85828601610a9b565b9150509250929050565b6000610ba2826109ea565b9050919050565b610bb281610b97565b82525050565b6000602082019050610bcd6000830184610ba9565b92915050565b6000819050919050565b610be681610bd3565b8114610bf157600080fd5b50565b600081359050610c0381610bdd565b92915050565b600060208284031215610c1f57610c1e6107ee565b5b6000610c2d84828501610bf4565b91505092915050565b610c3f81610b97565b8114610c4a57600080fd5b50565b600081359050610c5c81610c36565b92915050565b600060208284031215610c7857610c776107ee565b5b6000610c8684828501610c4d565b91505092915050565b600060208284031215610ca557610ca46107ee565b5b600082013567ffffffffffffffff811115610cc357610cc26107f3565b5b610ccf84828501610910565b91505092915050565b600082825260208201905092915050565b7f4e6f7420617574686f72697a6564000000000000000000000000000000000000600082015250565b6000610d1f600e83610cd8565b9150610d2a82610ce9565b602082019050919050565b60006020820190508181036000830152610d4e81610d12565b9050919050565b600081519050919050565b600081905092915050565b60005b83811015610d89578082015181840152602081019050610d6e565b60008484015250505050565b6000610da082610d55565b610daa8185610d60565b9350610dba818560208601610d6b565b80840191505092915050565b6000610dd28284610d95565b915081905092915050565b610de681610bd3565b82525050565b6000602082019050610e016000830184610ddd565b92915050565b600081519050610e1681610c36565b92915050565b6000610e2f610e2a8461088e565b610873565b905082815260208101848484011115610e4b57610e4a6107fd565b5b610e56848285610d6b565b509392505050565b600082601f830112610e7357610e726107f8565b5b8151610e83848260208601610e1c565b91505092915050565b600067ffffffffffffffff821115610ea757610ea6610813565b5b602082029050602081019050919050565b600080fd5b6000610ed0610ecb84610e8c565b610873565b90508083825260208201905060208402830185811115610ef357610ef2610eb8565b5b835b81811015610f3a57805167ffffffffffffffff811115610f1857610f176107f8565b5b808601610f258982610e5e565b85526020850194505050602081019050610ef5565b5050509392505050565b600082601f830112610f5957610f586107f8565b5b8151610f69848260208601610ebd565b91505092915050565b600067ffffffffffffffff821115610f8d57610f8c610813565b5b602082029050602081019050919050565b600081519050610fad81610a84565b92915050565b6000610fc6610fc184610f72565b610873565b90508083825260208201905060208402830185811115610fe957610fe8610eb8565b5b835b818110156110125780610ffe8882610f9e565b845260208401935050602081019050610feb565b5050509392505050565b600082601f830112611031576110306107f8565b5b8151611041848260208601610fb3565b91505092915050565b60008060008060808587031215611064576110636107ee565b5b600061107287828801610e07565b945050602085015167ffffffffffffffff811115611093576110926107f3565b5b61109f87828801610e5e565b935050604085015167ffffffffffffffff8111156110c0576110bf6107f3565b5b6110cc87828801610f44565b925050606085015167ffffffffffffffff8111156110ed576110ec6107f3565b5b6110f98782880161101c565b91505092959194509250565b7f4d69736d617463686564206c656e677468730000000000000000000000000000600082015250565b600061113b601283610cd8565b915061114682611105565b602082019050919050565b6000602082019050818103600083015261116a8161112e565b9050919050565b7f4e487b7100000000000000000000000000000000000000000000000000000000600052603260045260246000fd5b7f4e487b7100000000000000000000000000000000000000000000000000000000600052601160045260246000fd5b60006111da826109b6565b91506111e5836109b6565b92508282026111f3816109b6565b9150828204841483151761120a576112096111a0565b5b5092915050565b7f4e487b7100000000000000000000000000000000000000000000000000000000600052601260045260246000fd5b600061124b826109b6565b9150611256836109b6565b92508261126657611265611211565b5b828204905092915050565b600061127c826109b6565b9150611287836109b6565b925082820190508082111561129f5761129e6111a0565b5b92915050565b7f496e73756666696369656e7420636f6e74726163742062616c616e6365000000600082015250565b60006112db601d83610cd8565b91506112e6826112a5565b602082019050919050565b6000602082019050818103600083015261130a816112ce565b9050919050565b60006060820190506113266000830186610ddd565b6113336020830185610ba9565b61134060408301846109c0565b94935050505056fea26469706673582212201a5d72254c1878aa226090690df29831ad86ccd732efaddb80fe8dad4a27d2bc64736f6c634300081c0033",
  "linkReferences": {},
  "deployedLinkReferences": {}
}