{
  "_format": "hh-sol-artifact-1",
  "contractName": "SimpleFraudDetector",
  "sourceName": "contracts/FraudDetector.sol",
  "abi": [
    {
      "inputs": [
        {
          "internalType": "address",
          "name": "registryAddress",
          "type": "address"
        }
      ],
      "stateMutability": "nonpayable",
      "type": "constructor"
    },
    {
      "inputs": [
        {
          "internalType": "address",
          "name": "",
          "type": "address"
        },
        {
          "internalType": "string",
          "name": "",
          "type": "string"
        }
      ],
      "name": "illnessHistories",
      "outputs": [
        {
          "internalType": "uint256",
          "name": "lastPharmacyTime",
          "type": "uint256"
        },
        {
          "internalType": "uint256",
          "name": "lastTreatmentDays",
          "type": "uint256"
        }
      ],
      "stateMutability": "view",
      "type": "function"
    },
    {
      "inputs": [],
      "name": "registry",
      "outputs": [
        {
          "internalType": "contract MedicalFlowRegistry",
          "name": "",
          "type": "address"
        }
      ],
      "stateMutability": "view",
      "type": "function"
    },
    {
      "inputs": [
        {
          "internalType": "address",
          "name": "newRegistry",
          "type": "address"
        }
      ],
      "name": "setRegistry",
      "outputs": [],
      "stateMutability": "nonpayable",
      "type": "function"
    },
    {
      "inputs": [
        {
          "internalType": "bytes32",
          "name": "recordId",
          "type": "bytes32"
        }
      ],
      "name": "verify",
      "outputs": [
        {
          "internalType": "bool",
          "name": "",
          "type": "bool"
        }
      ],
      "stateMutability": "nonpayable",
      "type": "function"
    }
  ],
  "bytecode": "0x608060405234801561001057600080fd5b50604051611130380380611130833981810160405281019061003291906100db565b806000806101000a81548173ffffffffffffffffffffffffffffffffffffffff021916908373ffffffffffffffffffffffffffffffffffffffff16021790555050610108565b600080fd5b600073ffffffffffffffffffffffffffffffffffffffff82169050919050565b60006100a88261007d565b9050919050565b6100b88161009d565b81146100c357600080fd5b50565b6000815190506100d5816100af565b92915050565b6000602082840312156100f1576100f0610078565b5b60006100ff848285016100c6565b91505092915050565b611019806101176000396000f3fe608060405234801561001057600080fd5b506004361061004c5760003560e01c806375e36616146100515780637b1039991461008157806397a254011461009f578063a91ee0dc146100d0575b600080fd5b61006b6004803603810190610066919061044d565b6100ec565b6040516100789190610495565b60405180910390f35b610089610355565b604051610096919061052f565b60405180910390f35b6100b960048036038101906100b491906106ce565b610379565b6040516100c7929190610743565b60405180910390f35b6100ea60048036038101906100e5919061076c565b6103c0565b005b60008060008054906101000a900473ffffffffffffffffffffffffffffffffffffffff1673ffffffffffffffffffffffffffffffffffffffff1663fb31ff37846040518263ffffffff1660e01b815260040161014891906107a8565b600060405180830381865afa158015610165573d6000803e3d6000fd5b505050506040513d6000823e3d601f19601f8201168201806040525081019061018e9190610e1a565b905080608001516101d4576040517f08c379a00000000000000000000000000000000000000000000000000000000081526004016101cb90610ec0565b60405180910390fd5b600060016000836000015173ffffffffffffffffffffffffffffffffffffffff1673ffffffffffffffffffffffffffffffffffffffff16815260200190815260200160002082606001516000015160405161022f9190610f27565b908152602001604051809103902060405180604001604052908160008201548152602001600182015481525050905060008160000151146102aa57600081600001518360e001516102809190610f6d565b90506201518082602001516102959190610fa1565b8110156102a85760009350505050610350565b505b60405180604001604052808360e00151815260200183606001516080015181525060016000846000015173ffffffffffffffffffffffffffffffffffffffff1673ffffffffffffffffffffffffffffffffffffffff1681526020019081526020016000208360600151600001516040516103249190610f27565b908152602001604051809103902060008201518160000155602082015181600101559050506001925050505b919050565b60008054906101000a900473ffffffffffffffffffffffffffffffffffffffff1681565b600160205281600052604060002081805160208101820180518482526020830160208501208183528095505050505050600091509150508060000154908060010154905082565b806000806101000a81548173ffffffffffffffffffffffffffffffffffffffff021916908373ffffffffffffffffffffffffffffffffffffffff16021790555050565b6000604051905090565b600080fd5b600080fd5b6000819050919050565b61042a81610417565b811461043557600080fd5b50565b60008135905061044781610421565b92915050565b6000602082840312156104635761046261040d565b5b600061047184828501610438565b91505092915050565b60008115159050919050565b61048f8161047a565b82525050565b60006020820190506104aa6000830184610486565b92915050565b600073ffffffffffffffffffffffffffffffffffffffff82169050919050565b6000819050919050565b60006104f56104f06104eb846104b0565b6104d0565b6104b0565b9050919050565b6000610507826104da565b9050919050565b6000610519826104fc565b9050919050565b6105298161050e565b82525050565b60006020820190506105446000830184610520565b92915050565b6000610555826104b0565b9050919050565b6105658161054a565b811461057057600080fd5b50565b6000813590506105828161055c565b92915050565b600080fd5b600080fd5b6000601f19601f8301169050919050565b7f4e487b7100000000000000000000000000000000000000000000000000000000600052604160045260246000fd5b6105db82610592565b810181811067ffffffffffffffff821117156105fa576105f96105a3565b5b80604052505050565b600061060d610403565b905061061982826105d2565b919050565b600067ffffffffffffffff821115610639576106386105a3565b5b61064282610592565b9050602081019050919050565b82818337600083830152505050565b600061067161066c8461061e565b610603565b90508281526020810184848401111561068d5761068c61058d565b5b61069884828561064f565b509392505050565b600082601f8301126106b5576106b4610588565b5b81356106c584826020860161065e565b91505092915050565b600080604083850312156106e5576106e461040d565b5b60006106f385828601610573565b925050602083013567ffffffffffffffff81111561071457610713610412565b5b610720858286016106a0565b9150509250929050565b6000819050919050565b61073d8161072a565b82525050565b60006040820190506107586000830185610734565b6107656020830184610734565b9392505050565b6000602082840312156107825761078161040d565b5b600061079084828501610573565b91505092915050565b6107a281610417565b82525050565b60006020820190506107bd6000830184610799565b92915050565b600080fd5b600080fd5b6000815190506107dc8161055c565b92915050565b60005b838110156108005780820151818401526020810190506107e5565b60008484015250505050565b600061081f61081a8461061e565b610603565b90508281526020810184848401111561083b5761083a61058d565b5b6108468482856107e2565b509392505050565b600082601f83011261086357610862610588565b5b815161087384826020860161080c565b91505092915050565b600067ffffffffffffffff821115610897576108966105a3565b5b602082029050602081019050919050565b600080fd5b60006108c06108bb8461087c565b610603565b905080838252602082019050602084028301858111156108e3576108e26108a8565b5b835b8181101561092a57805167ffffffffffffffff81111561090857610907610588565b5b808601610915898261084e565b855260208501945050506020810190506108e5565b5050509392505050565b600082601f83011261094957610948610588565b5b81516109598482602086016108ad565b91505092915050565b600067ffffffffffffffff82111561097d5761097c6105a3565b5b602082029050602081019050919050565b6109978161072a565b81146109a257600080fd5b50565b6000815190506109b48161098e565b92915050565b60006109cd6109c884610962565b610603565b905080838252602082019050602084028301858111156109f0576109ef6108a8565b5b835b81811015610a195780610a0588826109a5565b8452602084019350506020810190506109f2565b5050509392505050565b600082601f830112610a3857610a37610588565b5b8151610a488482602086016109ba565b91505092915050565b600081519050610a6081610421565b92915050565b600067ffffffffffffffff821115610a8157610a806105a3565b5b610a8a82610592565b9050602081019050919050565b6000610aaa610aa584610a66565b610603565b905082815260208101848484011115610ac657610ac561058d565b5b610ad18482856107e2565b509392505050565b600082601f830112610aee57610aed610588565b5b8151610afe848260208601610a97565b91505092915050565b600060e08284031215610b1d57610b1c6107c3565b5b610b2760e0610603565b9050600082015167ffffffffffffffff811115610b4757610b466107c8565b5b610b538482850161084e565b600083015250602082015167ffffffffffffffff811115610b7757610b766107c8565b5b610b838482850161084e565b602083015250604082015167ffffffffffffffff811115610ba757610ba66107c8565b5b610bb384828501610934565b604083015250606082015167ffffffffffffffff811115610bd757610bd66107c8565b5b610be384828501610a23565b6060830152506080610bf7848285016109a5565b60808301525060a0610c0b84828501610a51565b60a08301525060c082015167ffffffffffffffff811115610c2f57610c2e6107c8565b5b610c3b84828501610ad9565b60c08301525092915050565b610c508161047a565b8114610c5b57600080fd5b50565b600081519050610c6d81610c47565b92915050565b60068110610c8057600080fd5b50565b600081519050610c9281610c73565b92915050565b60006101408284031215610caf57610cae6107c3565b5b610cba610140610603565b90506000610cca848285016107cd565b600083015250602082015167ffffffffffffffff811115610cee57610ced6107c8565b5b610cfa8482850161084e565b602083015250604082015167ffffffffffffffff811115610d1e57610d1d6107c8565b5b610d2a8482850161084e565b604083015250606082015167ffffffffffffffff811115610d4e57610d4d6107c8565b5b610d5a84828501610b07565b6060830152506080610d6e84828501610c5e565b60808301525060a082015167ffffffffffffffff811115610d9257610d916107c8565b5b610d9e8482850161084e565b60a08301525060c082015167ffffffffffffffff811115610dc257610dc16107c8565b5b610dce8482850161084e565b60c08301525060e0610de2848285016109a5565b60e083015250610100610df784828501610c5e565b61010083015250610120610e0d84828501610c83565b6101208301525092915050565b600060208284031215610e3057610e2f61040d565b5b600082015167ffffffffffffffff811115610e4e57610e4d610412565b5b610e5a84828501610c98565b91505092915050565b600082825260208201905092915050565b7f506861726d616379206e6f7420636f6e6669726d656400000000000000000000600082015250565b6000610eaa601683610e63565b9150610eb582610e74565b602082019050919050565b60006020820190508181036000830152610ed981610e9d565b9050919050565b600081519050919050565b600081905092915050565b6000610f0182610ee0565b610f0b8185610eeb565b9350610f1b8185602086016107e2565b80840191505092915050565b6000610f338284610ef6565b915081905092915050565b7f4e487b7100000000000000000000000000000000000000000000000000000000600052601160045260246000fd5b6000610f788261072a565b9150610f838361072a565b9250828203905081811115610f9b57610f9a610f3e565b5b92915050565b6000610fac8261072a565b9150610fb78361072a565b9250828202610fc58161072a565b91508282048414831517610fdc57610fdb610f3e565b5b509291505056fea26469706673582212202e32cd6d2d8194f931397fc839f286589bd8eeaff2ca8e1a1f2403db382cbc6d64736f6c634300081c0033",
  "linkReferences": {},
  "deployedLinkReferences": {}
}