{
  "_format": "hh-sol-artifact-1",
  "contractName": "MedicalFlowRegistry",
  "sourceName": "contracts/MedicalFlowRegistry.sol",
  "abi": [
    {
      "inputs": [
        {
          "internalType": "address",
          "name": "_fraudDetector",
          "type": "address"
        },
        {
          "internalType": "address",
          "name": "_insuranceAuthority",
          "type": "address"
        },
        {
          "internalType": "address",
          "name": "_reimbursementContract",
          "type": "address"
        }
      ],
      "stateMutability": "nonpayable",
      "type": "constructor"
    },
    {
      "anonymous": false,
      "inputs": [
        {
          "indexed": false,
          "internalType": "string",
          "name": "name",
          "type": "string"
        },
        {
          "indexed": false,
          "internalType": "address",
          "name": "account",
          "type": "address"
        }
      ],
      "name": "HospitalRegistered",
      "type": "event"
    },
    {
      "anonymous": false,
      "inputs": [
        {
          "indexed": false,
          "internalType": "bytes32",
          "name": "recordId",
          "type": "bytes32"
        }
      ],
      "name": "HospitalSubmitted",
      "type": "event"
    },
    {
      "anonymous": false,
      "inputs": [
        {
          "indexed": false,
          "internalType": "bytes32",
          "name": "recordId",
          "type": "bytes32"
        }
      ],
      "name": "PatientConfirmed",
      "type": "event"
    },
    {
      "anonymous": false,
      "inputs": [
        {
          "indexed": false,
          "internalType": "bytes32",
          "name": "recordId",
          "type": "bytes32"
        }
      ],
      "name": "PharmacyConfirmed",
      "type": "event"
    },
    {
      "anonymous": false,
      "inputs": [
        {
          "indexed": false,
          "internalType": "bytes32",
          "name": "recordId",
          "type": "bytes32"
        }
      ],
      "name": "RecordApproved",
      "type": "event"
    },
    {
      "anonymous": false,
      "inputs": [
        {
          "indexed": false,
          "internalType": "bytes32",
          "name": "recordId",
          "type": "bytes32"
        },
        {
          "indexed": false,
          "internalType": "address",
          "name": "patient",
          "type": "address"
        }
      ],
      "name": "RecordCreated",
      "type": "event"
    },
    {
      "inputs": [
        {
          "internalType": "bytes32",
          "name": "recordId",
          "type": "bytes32"
        }
      ],
      "name": "checkFraudAndApprove",
      "outputs": [],
      "stateMutability": "nonpayable",
      "type": "function"
    },
    {
      "inputs": [
        {
          "internalType": "bytes32",
          "name": "recordId",
          "type": "bytes32"
        },
        {
          "internalType": "bytes32",
          "name": "signedHash",
          "type": "bytes32"
        },
        {
          "internalType": "bytes",
          "name": "patientSignature",
          "type": "bytes"
        }
      ],
      "name": "confirmPrescription",
      "outputs": [],
      "stateMutability": "nonpayable",
      "type": "function"
    },
    {
      "inputs": [
        {
          "internalType": "string",
          "name": "hospital",
          "type": "string"
        },
        {
          "internalType": "string",
          "name": "province",
          "type": "string"
        }
      ],
      "name": "createRecord",
      "outputs": [
        {
          "internalType": "bytes32",
          "name": "",
          "type": "bytes32"
        }
      ],
      "stateMutability": "nonpayable",
      "type": "function"
    },
    {
      "inputs": [],
      "name": "fraudDetector",
      "outputs": [
        {
          "internalType": "address",
          "name": "",
          "type": "address"
        }
      ],
      "stateMutability": "view",
      "type": "function"
    },
    {
      "inputs": [
        {
          "internalType": "bytes32",
          "name": "recordId",
          "type": "bytes32"
        }
      ],
      "name": "getFullRecord",
      "outputs": [
        {
          "components": [
            {
              "internalType": "address",
              "name": "patient",
              "type": "address"
            },
            {
              "internalType": "string",
              "name": "province",
              "type": "string"
            },
            {
              "internalType": "string",
              "name": "hospital",
              "type": "string"
            },
            {
              "components": [
                {
                  "internalType": "string",
                  "name": "illness",
                  "type": "string"
                },
                {
                  "internalType": "string",
                  "name": "doctorName",
                  "type": "string"
                },
                {
                  "internalType": "string[]",
                  "name": "medicines",
                  "type": "string[]"
                },
                {
                  "internalType": "uint256[]",
                  "name": "medicineAmounts",
                  "type": "uint256[]"
                },
                {
                  "internalType": "uint256",
                  "name": "treatmentDays",
                  "type": "uint256"
                },
                {
                  "internalType": "bytes32",
                  "name": "prescriptionHash",
                  "type": "bytes32"
                },
                {
                  "internalType": "bytes",
                  "name": "hospitalSignature",
                  "type": "bytes"
                }
              ],
              "internalType": "struct MedicalFlowRegistry.HospitalData",
              "name": "hospitalData",
              "type": "tuple"
            },
            {
              "internalType": "bool",
              "name": "pharmacyConfirmed",
              "type": "bool"
            },
            {
              "internalType": "string",
              "name": "pharmacyName",
              "type": "string"
            },
            {
              "internalType": "string",
              "name": "pharmacyOperator",
              "type": "string"
            },
            {
              "internalType": "uint256",
              "name": "pharmacyConfirmTime",
              "type": "uint256"
            },
            {
              "internalType": "bool",
              "name": "approved",
              "type": "bool"
            },
            {
              "internalType": "enum MedicalFlowRegistry.Status",
              "name": "status",
              "type": "uint8"
            }
          ],
          "internalType": "struct MedicalFlowRegistry.Record",
          "name": "",
          "type": "tuple"
        }
      ],
      "stateMutability": "view",
      "type": "function"
    },
    {
      "inputs": [
        {
          "internalType": "bytes32",
          "name": "recordId",
          "type": "bytes32"
        }
      ],
      "name": "getRecord",
      "outputs": [
        {
          "internalType": "address",
          "name": "patient",
          "type": "address"
        },
        {
          "internalType": "string",
          "name": "province",
          "type": "string"
        },
        {
          "internalType": "string[]",
          "name": "medicines",
          "type": "string[]"
        },
        {
          "internalType": "uint256[]",
          "name": "medicineAmounts",
          "type": "uint256[]"
        }
      ],
      "stateMutability": "view",
      "type": "function"
    },
    {
      "inputs": [
        {
          "internalType": "bytes32",
          "name": "recordId",
          "type": "bytes32"
        }
      ],
      "name": "getRecordStatus",
      "outputs": [
        {
          "internalType": "enum MedicalFlowRegistry.Status",
          "name": "",
          "type": "uint8"
        }
      ],
      "stateMutability": "view",
      "type": "function"
    },
    {
      "inputs": [
        {
          "internalType": "string",
          "name": "",
          "type": "string"
        }
      ],
      "name": "hospitalAccounts",
      "outputs": [
        {
          "internalType": "address",
          "name": "",
          "type": "address"
        }
      ],
      "stateMutability": "view",
      "type": "function"
    },
    {
      "inputs": [
        {
          "internalType": "bytes32",
          "name": "recordId",
          "type": "bytes32"
        },
        {
          "components": [
            {
              "internalType": "string",
              "name": "illness",
              "type": "string"
            },
            {
              "internalType": "string",
              "name": "doctorName",
              "type": "string"
            },
            {
              "internalType": "string[]",
              "name": "medicines",
              "type": "string[]"
            },
            {
              "internalType": "uint256[]",
              "name": "medicineAmounts",
              "type": "uint256[]"
            },
            {
              "internalType": "uint256",
              "name": "treatmentDays",
              "type": "uint256"
            },
            {
              "internalType": "bytes32",
              "name": "prescriptionHash",
              "type": "bytes32"
            },
            {
              "internalType": "bytes",
              "name": "hospitalSignature",
              "type": "bytes"
            }
          ],
          "internalType": "struct MedicalFlowRegistry.HospitalData",
          "name": "data",
          "type": "tuple"
        }
      ],
      "name": "hospitalSubmit",
      "outputs": [],
      "stateMutability": "nonpayable",
      "type": "function"
    },
    {
      "inputs": [],
      "name": "insuranceAuthority",
      "outputs": [
        {
          "internalType": "address",
          "name": "",
          "type": "address"
        }
      ],
      "stateMutability": "view",
      "type": "function"
    },
    {
      "inputs": [
        {
          "internalType": "bytes32",
          "name": "recordId",
          "type": "bytes32"
        }
      ],
      "name": "isRecordApproved",
      "outputs": [
        {
          "internalType": "bool",
          "name": "",
          "type": "bool"
        }
      ],
      "stateMutability": "view",
      "type": "function"
    },
    {
      "inputs": [
        {
          "internalType": "bytes32",
          "name": "recordId",
          "type": "bytes32"
        },
        {
          "internalType": "string",
          "name": "pharmacyName",
          "type": "string"
        },
        {
          "internalType": "string",
          "name": "pharmacyOperator",
          "type": "string"
        },
        {
          "internalType": "bytes32",
          "name": "confirmHash",
          "type": "bytes32"
        }
      ],
      "name": "pharmacyConfirm",
      "outputs": [],
      "stateMutability": "nonpayable",
      "type": "function"
    },
    {
      "inputs": [
        {
          "internalType": "bytes32",
          "name": "",
          "type": "bytes32"
        }
      ],
      "name": "records",
      "outputs": [
        {
          "internalType": "address",
          "name": "patient",
          "type": "address"
        },
        {
          "internalType": "string",
          "name": "province",
          "type": "string"
        },
        {
          "internalType": "string",
          "name": "hospital",
          "type": "string"
        },
        {
          "components": [
            {
              "internalType": "string",
              "name": "illness",
              "type": "string"
            },
            {
              "internalType": "string",
              "name": "doctorName",
              "type": "string"
            },
            {
              "internalType": "string[]",
              "name": "medicines",
              "type": "string[]"
            },
            {
              "internalType": "uint256[]",
              "name": "medicineAmounts",
              "type": "uint256[]"
            },
            {
              "internalType": "uint256",
              "name": "treatmentDays",
              "type": "uint256"
            },
            {
              "internalType": "bytes32",
              "name": "prescriptionHash",
              "type": "bytes32"
            },
            {
              "internalType": "bytes",
              "name": "hospitalSignature",
              "type": "bytes"
            }
          ],
          "internalType": "struct MedicalFlowRegistry.HospitalData",
          "name": "hospitalData",
          "type": "tuple"
        },
        {
          "internalType": "bool",
          "name": "pharmacyConfirmed",
          "type": "bool"
        },
        {
          "internalType": "string",
          "name": "pharmacyName",
          "type": "string"
        },
        {
          "internalType": "string",
          "name": "pharmacyOperator",
          "type": "string"
        },
        {
          "internalType": "uint256",
          "name": "pharmacyConfirmTime",
          "type": "uint256"
        },
        {
          "internalType": "bool",
          "name": "approved",
          "type": "bool"
        },
        {
          "internalType": "enum MedicalFlowRegistry.Status",
          "name": "status",
          "type": "uint8"
        }
      ],
      "stateMutability": "view",
      "type": "function"
    },
    {
      "inputs": [
        {
          "internalType": "string",
          "name": "name",
          "type": "string"
        },
        {
          "internalType": "address",
          "name": "account",
          "type": "address"
        }
      ],
      "name": "registerHospital",
      "outputs": [],
      "stateMutability": "nonpayable",
      "type": "function"
    },
    {
      "inputs": [],
      "name": "reimbursementContract",
      "outputs": [
        {
          "internalType": "address",
          "name": "",
          "type": "address"
        }
      ],
      "stateMutability": "view",
      "type": "function"
    },
    {
      "inputs": [
        {
          "internalType": "address",
          "name": "_reimbursementContract",
          "type": "address"
        }
      ],
      "name": "setReimbursementContract",
      "outputs": [],
      "stateMutability": "nonpayable",
      "type": "function"
    },
    {
      "inputs": [
        {
          "internalType": "bytes32",
          "name": "",
          "type": "bytes32"
        }
      ],
      "name": "usedPatientHashes",
      "outputs": [
        {
          "internalType": "bool",
          "name": "",
          "type": "bool"
        }
      ],
      "stateMutability": "view",
      "type": "function"
    }
  ],
  "bytecode": "0x608060405234801561001057600080fd5b50604051614aab380380614aab83398181016040528101906100329190610160565b82600360006101000a81548173ffffffffffffffffffffffffffffffffffffffff021916908373ffffffffffffffffffffffffffffffffffffffff16021790555081600460006101000a81548173ffffffffffffffffffffffffffffffffffffffff021916908373ffffffffffffffffffffffffffffffffffffffff16021790555080600560006101000a81548173ffffffffffffffffffffffffffffffffffffffff021916908373ffffffffffffffffffffffffffffffffffffffff1602179055505050506101b3565b600080fd5b600073ffffffffffffffffffffffffffffffffffffffff82169050919050565b600061012d82610102565b9050919050565b61013d81610122565b811461014857600080fd5b50565b60008151905061015a81610134565b92915050565b600080600060608486031215610179576101786100fd565b5b60006101878682870161014b565b93505060206101988682870161014b565b92505060406101a98682870161014b565b9150509250925092565b6148e9806101c26000396000f3fe608060405234801561001057600080fd5b506004361061010b5760003560e01c80635d08b39d116100a2578063c090b4df11610071578063c090b4df146102d6578063d5164e3f14610306578063fb31ff3714610322578063fcd722e614610352578063fd14aa2b146103825761010b565b80635d08b39d146102665780636477627614610282578063793fa72b1461029e5780638b815f86146102ba5761010b565b806333e10fd9116100de57806333e10fd9146101ca57806342341713146101fa57806342d5350b1461021857806345ab8b3d146102365761010b565b806301e647251461011057806320bb218814610149578063213681cd146101675780632ca1d38f1461019a575b600080fd5b61012a600480360381019061012591906122c6565b61039e565b6040516101409a99989796959493929190612755565b60405180910390f35b61015161095e565b60405161015e9190612814565b60405180910390f35b610181600480360381019061017c91906122c6565b610984565b6040516101919493929190612924565b60405180910390f35b6101b460048036038101906101af9190612ab3565b610b99565b6040516101c19190612814565b60405180910390f35b6101e460048036038101906101df91906122c6565b610be2565b6040516101f19190612afc565b60405180910390f35b610202610c02565b60405161020f9190612814565b60405180910390f35b610220610c28565b60405161022d9190612814565b60405180910390f35b610250600480360381019061024b91906122c6565b610c4e565b60405161025d9190612b17565b60405180910390f35b610280600480360381019061027b9190612b32565b610c7a565b005b61029c60048036038101906102979190612bfd565b610f5a565b005b6102b860048036038101906102b39190612c8a565b610f9e565b005b6102d460048036038101906102cf9190612d8b565b61113c565b005b6102f060048036038101906102eb9190612dfa565b6113f4565b6040516102fd9190612e81565b60405180910390f35b610320600480360381019061031b91906122c6565b611510565b005b61033c600480360381019061033791906122c6565b611823565b6040516103499190613077565b60405180910390f35b61036c600480360381019061036791906122c6565b611e78565b6040516103799190612afc565b60405180910390f35b61039c600480360381019061039791906130bd565b611ea4565b005b60006020528060005260406000206000915090508060000160009054906101000a900473ffffffffffffffffffffffffffffffffffffffff16908060010180546103e790613148565b80601f016020809104026020016040519081016040528092919081815260200182805461041390613148565b80156104605780601f1061043557610100808354040283529160200191610460565b820191906000526020600020905b81548152906001019060200180831161044357829003601f168201915b50505050509080600201805461047590613148565b80601f01602080910402602001604051908101604052809291908181526020018280546104a190613148565b80156104ee5780601f106104c3576101008083540402835291602001916104ee565b820191906000526020600020905b8154815290600101906020018083116104d157829003601f168201915b505050505090806003016040518060e001604052908160008201805461051390613148565b80601f016020809104026020016040519081016040528092919081815260200182805461053f90613148565b801561058c5780601f106105615761010080835404028352916020019161058c565b820191906000526020600020905b81548152906001019060200180831161056f57829003601f168201915b505050505081526020016001820180546105a590613148565b80601f01602080910402602001604051908101604052809291908181526020018280546105d190613148565b801561061e5780601f106105f35761010080835404028352916020019161061e565b820191906000526020600020905b81548152906001019060200180831161060157829003601f168201915b5050505050815260200160028201805480602002602001604051908101604052809291908181526020016000905b828210156106f857838290600052602060002001805461066b90613148565b80601f016020809104026020016040519081016040528092919081815260200182805461069790613148565b80156106e45780601f106106b9576101008083540402835291602001916106e4565b820191906000526020600020905b8154815290600101906020018083116106c757829003601f168201915b50505050508152602001906001019061064c565b5050505081526020016003820180548060200260200160405190810160405280929190818152602001828054801561074f57602002820191906000526020600020905b81548152602001906001019080831161073b575b50505050508152602001600482015481526020016005820154815260200160068201805461077c90613148565b80601f01602080910402602001604051908101604052809291908181526020018280546107a890613148565b80156107f55780601f106107ca576101008083540402835291602001916107f5565b820191906000526020600020905b8154815290600101906020018083116107d857829003601f168201915b5050505050815250509080600a0160009054906101000a900460ff169080600b01805461082190613148565b80601f016020809104026020016040519081016040528092919081815260200182805461084d90613148565b801561089a5780601f1061086f5761010080835404028352916020019161089a565b820191906000526020600020905b81548152906001019060200180831161087d57829003601f168201915b50505050509080600c0180546108af90613148565b80601f01602080910402602001604051908101604052809291908181526020018280546108db90613148565b80156109285780601f106108fd57610100808354040283529160200191610928565b820191906000526020600020905b81548152906001019060200180831161090b57829003601f168201915b50505050509080600d01549080600e0160009054906101000a900460ff169080600e0160019054906101000a900460ff1690508a565b600460009054906101000a900473ffffffffffffffffffffffffffffffffffffffff1681565b60006060806060600080600087815260200190815260200160002090508060000160009054906101000a900473ffffffffffffffffffffffffffffffffffffffff168160010182600301600201836003016003018280546109e490613148565b80601f0160208091040260200160405190810160405280929190818152602001828054610a1090613148565b8015610a5d5780601f10610a3257610100808354040283529160200191610a5d565b820191906000526020600020905b815481529060010190602001808311610a4057829003601f168201915b5050505050925081805480602002602001604051908101604052809291908181526020016000905b82821015610b31578382906000526020600020018054610aa490613148565b80601f0160208091040260200160405190810160405280929190818152602001828054610ad090613148565b8015610b1d5780601f10610af257610100808354040283529160200191610b1d565b820191906000526020600020905b815481529060010190602001808311610b0057829003601f168201915b505050505081526020019060010190610a85565b50505050915080805480602002602001604051908101604052809291908181526020018280548015610b8257602002820191906000526020600020905b815481526020019060010190808311610b6e575b505050505090509450945094509450509193509193565b6001818051602081018201805184825260208301602085012081835280955050505050506000915054906101000a900473ffffffffffffffffffffffffffffffffffffffff1681565b60026020528060005260406000206000915054906101000a900460ff1681565b600360009054906101000a900473ffffffffffffffffffffffffffffffffffffffff1681565b600560009054906101000a900473ffffffffffffffffffffffffffffffffffffffff1681565b6000806000838152602001908152602001600020600e0160019054906101000a900460ff169050919050565b6000806000868152602001908152602001600020905060026005811115610ca457610ca36126de565b5b81600e0160019054906101000a900460ff166005811115610cc857610cc76126de565b5b14610d08576040517f08c379a0000000000000000000000000000000000000000000000000000000008152600401610cff906131c5565b60405180910390fd5b80600301600501548214610d51576040517f08c379a0000000000000000000000000000000000000000000000000000000008152600401610d4890613231565b60405180910390fd5b6000610df38260030160050154836003016006018054610d7090613148565b80601f0160208091040260200160405190810160405280929190818152602001828054610d9c90613148565b8015610de95780601f10610dbe57610100808354040283529160200191610de9565b820191906000526020600020905b815481529060010190602001808311610dcc57829003601f168201915b505050505061205e565b9050600182600201604051610e0891906132f4565b908152602001604051809103902060009054906101000a900473ffffffffffffffffffffffffffffffffffffffff1673ffffffffffffffffffffffffffffffffffffffff168173ffffffffffffffffffffffffffffffffffffffff1614610ea4576040517f08c379a0000000000000000000000000000000000000000000000000000000008152600401610e9b90613357565b60405180910390fd5b600182600a0160006101000a81548160ff0219169083151502179055508482600b019081610ed2919061350e565b508382600c019081610ee4919061350e565b504282600d0181905550600382600e0160016101000a81548160ff02191690836005811115610f1657610f156126de565b5b02179055507f2a227975ccf36b42a0cffbad9ba01721ab8be8640bce32b015bd6ef3aaebebc886604051610f4a9190612e81565b60405180910390a1505050505050565b80600560006101000a81548173ffffffffffffffffffffffffffffffffffffffff021916908373ffffffffffffffffffffffffffffffffffffffff16021790555050565b600460009054906101000a900473ffffffffffffffffffffffffffffffffffffffff1673ffffffffffffffffffffffffffffffffffffffff163373ffffffffffffffffffffffffffffffffffffffff161461102e576040517f08c379a00000000000000000000000000000000000000000000000000000000081526004016110259061362c565b60405180910390fd5b600073ffffffffffffffffffffffffffffffffffffffff168173ffffffffffffffffffffffffffffffffffffffff160361109d576040517f08c379a000000000000000000000000000000000000000000000000000000000815260040161109490613698565b60405180910390fd5b80600184846040516110b09291906136dd565b908152602001604051809103902060006101000a81548173ffffffffffffffffffffffffffffffffffffffff021916908373ffffffffffffffffffffffffffffffffffffffff1602179055507ffef1a70e9e8c75ac68b6d5cbec2b9cd1b97c8cb3b42cd67124d731f592a1fb2b83838360405161112f93929190613723565b60405180910390a1505050565b6000806000858152602001908152602001600020905060016005811115611166576111656126de565b5b81600e0160019054906101000a900460ff16600581111561118a576111896126de565b5b146111ca576040517f08c379a00000000000000000000000000000000000000000000000000000000081526004016111c1906137a1565b60405180910390fd5b8060000160009054906101000a900473ffffffffffffffffffffffffffffffffffffffff1673ffffffffffffffffffffffffffffffffffffffff163373ffffffffffffffffffffffffffffffffffffffff161461125c576040517f08c379a00000000000000000000000000000000000000000000000000000000081526004016112539061380d565b60405180910390fd5b6002600084815260200190815260200160002060009054906101000a900460ff16156112bd576040517f08c379a00000000000000000000000000000000000000000000000000000000081526004016112b490613879565b60405180910390fd5b60006112c9848461205e565b90508160000160009054906101000a900473ffffffffffffffffffffffffffffffffffffffff1673ffffffffffffffffffffffffffffffffffffffff168173ffffffffffffffffffffffffffffffffffffffff161461135d576040517f08c379a0000000000000000000000000000000000000000000000000000000008152600401611354906138e5565b60405180910390fd5b60016002600086815260200190815260200160002060006101000a81548160ff021916908315150217905550600282600e0160016101000a81548160ff021916908360058111156113b1576113b06126de565b5b02179055507f8d0957356ffa79babc161eef3441efee42e091b93012592b217f13bad13a9ca7856040516113e59190612e81565b60405180910390a15050505050565b600080334260405160200161140a92919061396e565b60405160208183030381529060405280519060200120905060008060008381526020019081526020016000209050338160000160006101000a81548173ffffffffffffffffffffffffffffffffffffffff021916908373ffffffffffffffffffffffffffffffffffffffff1602179055508381600101908161148c919061350e565b508481600201908161149e919061350e565b50600081600e0160016101000a81548160ff021916908360058111156114c7576114c66126de565b5b02179055507ffc39d54de380118148fa225c58baeff6e4f590a1b85797533822b367bfe982c082336040516114fd92919061399a565b60405180910390a1819250505092915050565b600460009054906101000a900473ffffffffffffffffffffffffffffffffffffffff1673ffffffffffffffffffffffffffffffffffffffff163373ffffffffffffffffffffffffffffffffffffffff16146115a0576040517f08c379a00000000000000000000000000000000000000000000000000000000081526004016115979061362c565b60405180910390fd5b60008060008381526020019081526020016000209050600360058111156115ca576115c96126de565b5b81600e0160019054906101000a900460ff1660058111156115ee576115ed6126de565b5b1461162e576040517f08c379a000000000000000000000000000000000000000000000000000000000815260040161162590613a0f565b60405180910390fd5b6000600360009054906101000a900473ffffffffffffffffffffffffffffffffffffffff1673ffffffffffffffffffffffffffffffffffffffff166375e36616846040518263ffffffff1660e01b815260040161168b9190612e81565b6020604051808303816000875af11580156116aa573d6000803e3d6000fd5b505050506040513d601f19601f820116820180604052508101906116ce9190613a5b565b905080611710576040517f08c379a000000000000000000000000000000000000000000000000000000000815260040161170790613ad4565b60405180910390fd5b600182600e0160006101000a81548160ff021916908315150217905550600582600e0160016101000a81548160ff02191690836005811115611755576117546126de565b5b02179055507ff345d5bf6aef56d853addaf71c02947de61aac45c2b115bd831a9a598be80345836040516117899190612e81565b60405180910390a1600560009054906101000a900473ffffffffffffffffffffffffffffffffffffffff1673ffffffffffffffffffffffffffffffffffffffff16638e610328846040518263ffffffff1660e01b81526004016117ec9190612e81565b600060405180830381600087803b15801561180657600080fd5b505af115801561181a573d6000803e3d6000fd5b50505050505050565b61182b6121b7565b600080838152602001908152602001600020604051806101400160405290816000820160009054906101000a900473ffffffffffffffffffffffffffffffffffffffff1673ffffffffffffffffffffffffffffffffffffffff1673ffffffffffffffffffffffffffffffffffffffff1681526020016001820180546118af90613148565b80601f01602080910402602001604051908101604052809291908181526020018280546118db90613148565b80156119285780601f106118fd57610100808354040283529160200191611928565b820191906000526020600020905b81548152906001019060200180831161190b57829003601f168201915b5050505050815260200160028201805461194190613148565b80601f016020809104026020016040519081016040528092919081815260200182805461196d90613148565b80156119ba5780601f1061198f576101008083540402835291602001916119ba565b820191906000526020600020905b81548152906001019060200180831161199d57829003601f168201915b50505050508152602001600382016040518060e00160405290816000820180546119e390613148565b80601f0160208091040260200160405190810160405280929190818152602001828054611a0f90613148565b8015611a5c5780601f10611a3157610100808354040283529160200191611a5c565b820191906000526020600020905b815481529060010190602001808311611a3f57829003601f168201915b50505050508152602001600182018054611a7590613148565b80601f0160208091040260200160405190810160405280929190818152602001828054611aa190613148565b8015611aee5780601f10611ac357610100808354040283529160200191611aee565b820191906000526020600020905b815481529060010190602001808311611ad157829003601f168201915b5050505050815260200160028201805480602002602001604051908101604052809291908181526020016000905b82821015611bc8578382906000526020600020018054611b3b90613148565b80601f0160208091040260200160405190810160405280929190818152602001828054611b6790613148565b8015611bb45780601f10611b8957610100808354040283529160200191611bb4565b820191906000526020600020905b815481529060010190602001808311611b9757829003601f168201915b505050505081526020019060010190611b1c565b50505050815260200160038201805480602002602001604051908101604052809291908181526020018280548015611c1f57602002820191906000526020600020905b815481526020019060010190808311611c0b575b505050505081526020016004820154815260200160058201548152602001600682018054611c4c90613148565b80601f0160208091040260200160405190810160405280929190818152602001828054611c7890613148565b8015611cc55780601f10611c9a57610100808354040283529160200191611cc5565b820191906000526020600020905b815481529060010190602001808311611ca857829003601f168201915b5050505050815250508152602001600a820160009054906101000a900460ff16151515158152602001600b82018054611cfd90613148565b80601f0160208091040260200160405190810160405280929190818152602001828054611d2990613148565b8015611d765780601f10611d4b57610100808354040283529160200191611d76565b820191906000526020600020905b815481529060010190602001808311611d5957829003601f168201915b50505050508152602001600c82018054611d8f90613148565b80601f0160208091040260200160405190810160405280929190818152602001828054611dbb90613148565b8015611e085780601f10611ddd57610100808354040283529160200191611e08565b820191906000526020600020905b815481529060010190602001808311611deb57829003601f168201915b50505050508152602001600d8201548152602001600e820160009054906101000a900460ff16151515158152602001600e820160019054906101000a900460ff166005811115611e5b57611e5a6126de565b5b6005811115611e6d57611e6c6126de565b5b815250509050919050565b6000806000838152602001908152602001600020600e0160009054906101000a900460ff169050919050565b6000806000848152602001908152602001600020905060006005811115611ece57611ecd6126de565b5b81600e0160019054906101000a900460ff166005811115611ef257611ef16126de565b5b14611f32576040517f08c379a0000000000000000000000000000000000000000000000000000000008152600401611f2990613b40565b60405180910390fd5b600181600201604051611f4591906132f4565b908152602001604051809103902060009054906101000a900473ffffffffffffffffffffffffffffffffffffffff1673ffffffffffffffffffffffffffffffffffffffff163373ffffffffffffffffffffffffffffffffffffffff1614611fe1576040517f08c379a0000000000000000000000000000000000000000000000000000000008152600401611fd890613bac565b60405180910390fd5b81816003018181611ff291906146a4565b905050600181600e0160016101000a81548160ff0219169083600581111561201d5761201c6126de565b5b02179055507fdf2721a2b39ca94d54b31359a4bf1eceb2fd01e3e8b68d0e0bffa5d2e04dc97f836040516120519190612e81565b60405180910390a1505050565b600060418251146120a4576040517f08c379a000000000000000000000000000000000000000000000000000000000815260040161209b906146fe565b60405180910390fd5b6000836040516020016120b7919061478b565b60405160208183030381529060405280519060200120905060008060006020860151925060408601519150606086015160001a9050601b8160ff16101561210857601b8161210591906147be565b90505b601b8160ff16148061211d5750601c8160ff16145b61215c576040517f08c379a00000000000000000000000000000000000000000000000000000000081526004016121539061483f565b60405180910390fd5b6001848285856040516000815260200160405260405161217f949392919061486e565b6020604051602081039080840390855afa1580156121a1573d6000803e3d6000fd5b5050506020604051035194505050505092915050565b604051806101400160405280600073ffffffffffffffffffffffffffffffffffffffff16815260200160608152602001606081526020016121f661223c565b815260200160001515815260200160608152602001606081526020016000815260200160001515815260200160006005811115612236576122356126de565b5b81525090565b6040518060e00160405280606081526020016060815260200160608152602001606081526020016000815260200160008019168152602001606081525090565b6000604051905090565b600080fd5b600080fd5b6000819050919050565b6122a381612290565b81146122ae57600080fd5b50565b6000813590506122c08161229a565b92915050565b6000602082840312156122dc576122db612286565b5b60006122ea848285016122b1565b91505092915050565b600073ffffffffffffffffffffffffffffffffffffffff82169050919050565b600061231e826122f3565b9050919050565b61232e81612313565b82525050565b600081519050919050565b600082825260208201905092915050565b60005b8381101561236e578082015181840152602081019050612353565b60008484015250505050565b6000601f19601f8301169050919050565b600061239682612334565b6123a0818561233f565b93506123b0818560208601612350565b6123b98161237a565b840191505092915050565b600082825260208201905092915050565b60006123e082612334565b6123ea81856123c4565b93506123fa818560208601612350565b6124038161237a565b840191505092915050565b600081519050919050565b600082825260208201905092915050565b6000819050602082019050919050565b600061244683836123d5565b905092915050565b6000602082019050919050565b60006124668261240e565b6124708185612419565b9350836020820285016124828561242a565b8060005b858110156124be578484038952815161249f858261243a565b94506124aa8361244e565b925060208a01995050600181019050612486565b50829750879550505050505092915050565b600081519050919050565b600082825260208201905092915050565b6000819050602082019050919050565b6000819050919050565b61250f816124fc565b82525050565b60006125218383612506565b60208301905092915050565b6000602082019050919050565b6000612545826124d0565b61254f81856124db565b935061255a836124ec565b8060005b8381101561258b5781516125728882612515565b975061257d8361252d565b92505060018101905061255e565b5085935050505092915050565b6125a181612290565b82525050565b600081519050919050565b600082825260208201905092915050565b60006125ce826125a7565b6125d881856125b2565b93506125e8818560208601612350565b6125f18161237a565b840191505092915050565b600060e083016000830151848203600086015261261982826123d5565b9150506020830151848203602086015261263382826123d5565b9150506040830151848203604086015261264d828261245b565b91505060608301518482036060860152612667828261253a565b915050608083015161267c6080860182612506565b5060a083015161268f60a0860182612598565b5060c083015184820360c08601526126a782826125c3565b9150508091505092915050565b60008115159050919050565b6126c9816126b4565b82525050565b6126d8816124fc565b82525050565b7f4e487b7100000000000000000000000000000000000000000000000000000000600052602160045260246000fd5b6006811061271e5761271d6126de565b5b50565b600081905061272f8261270d565b919050565b600061273f82612721565b9050919050565b61274f81612734565b82525050565b60006101408201905061276b600083018d612325565b818103602083015261277d818c61238b565b90508181036040830152612791818b61238b565b905081810360608301526127a5818a6125fc565b90506127b460808301896126c0565b81810360a08301526127c6818861238b565b905081810360c08301526127da818761238b565b90506127e960e08301866126cf565b6127f76101008301856126c0565b612805610120830184612746565b9b9a5050505050505050505050565b60006020820190506128296000830184612325565b92915050565b600082825260208201905092915050565b600061284b8261240e565b612855818561282f565b9350836020820285016128678561242a565b8060005b858110156128a35784840389528151612884858261243a565b945061288f8361244e565b925060208a0199505060018101905061286b565b50829750879550505050505092915050565b600082825260208201905092915050565b60006128d1826124d0565b6128db81856128b5565b93506128e6836124ec565b8060005b838110156129175781516128fe8882612515565b97506129098361252d565b9250506001810190506128ea565b5085935050505092915050565b60006080820190506129396000830187612325565b818103602083015261294b818661238b565b9050818103604083015261295f8185612840565b9050818103606083015261297381846128c6565b905095945050505050565b600080fd5b600080fd5b7f4e487b7100000000000000000000000000000000000000000000000000000000600052604160045260246000fd5b6129c08261237a565b810181811067ffffffffffffffff821117156129df576129de612988565b5b80604052505050565b60006129f261227c565b90506129fe82826129b7565b919050565b600067ffffffffffffffff821115612a1e57612a1d612988565b5b612a278261237a565b9050602081019050919050565b82818337600083830152505050565b6000612a56612a5184612a03565b6129e8565b905082815260208101848484011115612a7257612a71612983565b5b612a7d848285612a34565b509392505050565b600082601f830112612a9a57612a9961297e565b5b8135612aaa848260208601612a43565b91505092915050565b600060208284031215612ac957612ac8612286565b5b600082013567ffffffffffffffff811115612ae757612ae661228b565b5b612af384828501612a85565b91505092915050565b6000602082019050612b1160008301846126c0565b92915050565b6000602082019050612b2c6000830184612746565b92915050565b60008060008060808587031215612b4c57612b4b612286565b5b6000612b5a878288016122b1565b945050602085013567ffffffffffffffff811115612b7b57612b7a61228b565b5b612b8787828801612a85565b935050604085013567ffffffffffffffff811115612ba857612ba761228b565b5b612bb487828801612a85565b9250506060612bc5878288016122b1565b91505092959194509250565b612bda81612313565b8114612be557600080fd5b50565b600081359050612bf781612bd1565b92915050565b600060208284031215612c1357612c12612286565b5b6000612c2184828501612be8565b91505092915050565b600080fd5b600080fd5b60008083601f840112612c4a57612c4961297e565b5b8235905067ffffffffffffffff811115612c6757612c66612c2a565b5b602083019150836001820283011115612c8357612c82612c2f565b5b9250929050565b600080600060408486031215612ca357612ca2612286565b5b600084013567ffffffffffffffff811115612cc157612cc061228b565b5b612ccd86828701612c34565b93509350506020612ce086828701612be8565b9150509250925092565b600067ffffffffffffffff821115612d0557612d04612988565b5b612d0e8261237a565b9050602081019050919050565b6000612d2e612d2984612cea565b6129e8565b905082815260208101848484011115612d4a57612d49612983565b5b612d55848285612a34565b509392505050565b600082601f830112612d7257612d7161297e565b5b8135612d82848260208601612d1b565b91505092915050565b600080600060608486031215612da457612da3612286565b5b6000612db2868287016122b1565b9350506020612dc3868287016122b1565b925050604084013567ffffffffffffffff811115612de457612de361228b565b5b612df086828701612d5d565b9150509250925092565b60008060408385031215612e1157612e10612286565b5b600083013567ffffffffffffffff811115612e2f57612e2e61228b565b5b612e3b85828601612a85565b925050602083013567ffffffffffffffff811115612e5c57612e5b61228b565b5b612e6885828601612a85565b9150509250929050565b612e7b81612290565b82525050565b6000602082019050612e966000830184612e72565b92915050565b612ea581612313565b82525050565b600060e0830160008301518482036000860152612ec882826123d5565b91505060208301518482036020860152612ee282826123d5565b91505060408301518482036040860152612efc828261245b565b91505060608301518482036060860152612f16828261253a565b9150506080830151612f2b6080860182612506565b5060a0830151612f3e60a0860182612598565b5060c083015184820360c0860152612f5682826125c3565b9150508091505092915050565b612f6c816126b4565b82525050565b612f7b81612734565b82525050565b600061014083016000830151612f9a6000860182612e9c565b5060208301518482036020860152612fb282826123d5565b91505060408301518482036040860152612fcc82826123d5565b91505060608301518482036060860152612fe68282612eab565b9150506080830151612ffb6080860182612f63565b5060a083015184820360a086015261301382826123d5565b91505060c083015184820360c086015261302d82826123d5565b91505060e083015161304260e0860182612506565b50610100830151613057610100860182612f63565b5061012083015161306c610120860182612f72565b508091505092915050565b600060208201905081810360008301526130918184612f81565b905092915050565b600080fd5b600060e082840312156130b4576130b3613099565b5b81905092915050565b600080604083850312156130d4576130d3612286565b5b60006130e2858286016122b1565b925050602083013567ffffffffffffffff8111156131035761310261228b565b5b61310f8582860161309e565b9150509250929050565b7f4e487b7100000000000000000000000000000000000000000000000000000000600052602260045260246000fd5b6000600282049050600182168061316057607f821691505b60208210810361317357613172613119565b5b50919050565b7f50617469656e7420636f6e6669726d6174696f6e207265717569726564000000600082015250565b60006131af601d8361233f565b91506131ba82613179565b602082019050919050565b600060208201905081810360008301526131de816131a2565b9050919050565b7f507265736372697074696f6e206d69736d617463680000000000000000000000600082015250565b600061321b60158361233f565b9150613226826131e5565b602082019050919050565b6000602082019050818103600083015261324a8161320e565b9050919050565b600081905092915050565b60008190508160005260206000209050919050565b6000815461327e81613148565b6132888186613251565b945060018216600081146132a357600181146132b8576132eb565b60ff19831686528115158202860193506132eb565b6132c18561325c565b60005b838110156132e3578154818901526001820191506020810190506132c4565b838801955050505b50505092915050565b60006133008284613271565b915081905092915050565b7f496e76616c696420686f73706974616c207369676e6174757265000000000000600082015250565b6000613341601a8361233f565b915061334c8261330b565b602082019050919050565b6000602082019050818103600083015261337081613334565b9050919050565b60006020601f8301049050919050565b600082821b905092915050565b6000600883026133c47fffffffffffffffffffffffffffffffffffffffffffffffffffffffffffffffff82613387565b6133ce8683613387565b95508019841693508086168417925050509392505050565b6000819050919050565b600061340b613406613401846124fc565b6133e6565b6124fc565b9050919050565b6000819050919050565b613425836133f0565b61343961343182613412565b848454613394565b825550505050565b600090565b61344e613441565b61345981848461341c565b505050565b5b8181101561347d57613472600082613446565b60018101905061345f565b5050565b601f8211156134c2576134938161325c565b61349c84613377565b810160208510156134ab578190505b6134bf6134b785613377565b83018261345e565b50505b505050565b600082821c905092915050565b60006134e5600019846008026134c7565b1980831691505092915050565b60006134fe83836134d4565b9150826002028217905092915050565b61351782612334565b67ffffffffffffffff8111156135305761352f612988565b5b61353a8254613148565b613545828285613481565b600060209050601f8311600181146135785760008415613566578287015190505b61357085826134f2565b8655506135d8565b601f1984166135868661325c565b60005b828110156135ae57848901518255600182019150602085019450602081019050613589565b868310156135cb57848901516135c7601f8916826134d4565b8355505b6001600288020188555050505b505050505050565b7f4f6e6c7920696e737572616e636520617574686f7269747920616c6c6f776564600082015250565b600061361660208361233f565b9150613621826135e0565b602082019050919050565b6000602082019050818103600083015261364581613609565b9050919050565b7f496e76616c696420686f73706974616c20616464726573730000000000000000600082015250565b600061368260188361233f565b915061368d8261364c565b602082019050919050565b600060208201905081810360008301526136b181613675565b9050919050565b60006136c48385613251565b93506136d1838584612a34565b82840190509392505050565b60006136ea8284866136b8565b91508190509392505050565b6000613702838561233f565b935061370f838584612a34565b6137188361237a565b840190509392505050565b6000604082019050818103600083015261373e8185876136f6565b905061374d6020830184612325565b949350505050565b7f486f73706974616c207375626d697373696f6e20726571756972656400000000600082015250565b600061378b601c8361233f565b915061379682613755565b602082019050919050565b600060208201905081810360008301526137ba8161377e565b9050919050565b7f4f6e6c792070617469656e742063616e20636f6e6669726d0000000000000000600082015250565b60006137f760188361233f565b9150613802826137c1565b602082019050919050565b60006020820190508181036000830152613826816137ea565b9050919050565b7f5369676e617475726520616c7265616479207573656400000000000000000000600082015250565b600061386360168361233f565b915061386e8261382d565b602082019050919050565b6000602082019050818103600083015261389281613856565b9050919050565b7f496e76616c69642070617469656e74207369676e617475726500000000000000600082015250565b60006138cf60198361233f565b91506138da82613899565b602082019050919050565b600060208201905081810360008301526138fe816138c2565b9050919050565b60008160601b9050919050565b600061391d82613905565b9050919050565b600061392f82613912565b9050919050565b61394761394282612313565b613924565b82525050565b6000819050919050565b613968613963826124fc565b61394d565b82525050565b600061397a8285613936565b60148201915061398a8284613957565b6020820191508190509392505050565b60006040820190506139af6000830185612e72565b6139bc6020830184612325565b9392505050565b7f506861726d61637920636f6e6669726d6174696f6e2072657175697265640000600082015250565b60006139f9601e8361233f565b9150613a04826139c3565b602082019050919050565b60006020820190508181036000830152613a28816139ec565b9050919050565b613a38816126b4565b8114613a4357600080fd5b50565b600081519050613a5581613a2f565b92915050565b600060208284031215613a7157613a70612286565b5b6000613a7f84828501613a46565b91505092915050565b7f4672617564204465746563746564000000000000000000000000000000000000600082015250565b6000613abe600e8361233f565b9150613ac982613a88565b602082019050919050565b60006020820190508181036000830152613aed81613ab1565b9050919050565b7f496e76616c696420737461676500000000000000000000000000000000000000600082015250565b6000613b2a600d8361233f565b9150613b3582613af4565b602082019050919050565b60006020820190508181036000830152613b5981613b1d565b9050919050565b7f556e617574686f72697a656420686f73706974616c2061646472657373000000600082015250565b6000613b96601d8361233f565b9150613ba182613b60565b602082019050919050565b60006020820190508181036000830152613bc581613b89565b9050919050565b7f4e487b7100000000000000000000000000000000000000000000000000000000600052600060045260246000fd5b600080fd5b600080fd5b600080fd5b60008083356001602003843603038112613c2757613c26613bfb565b5b80840192508235915067ffffffffffffffff821115613c4957613c48613c00565b5b602083019250600182023603831315613c6557613c64613c05565b5b509250929050565b600082905092915050565b613c828383613c6d565b67ffffffffffffffff811115613c9b57613c9a612988565b5b613ca58254613148565b613cb0828285613481565b6000601f831160018114613cdf5760008415613ccd578287013590505b613cd785826134f2565b865550613d3f565b601f198416613ced8661325c565b60005b82811015613d1557848901358255600182019150602085019450602081019050613cf0565b86831015613d325784890135613d2e601f8916826134d4565b8355505b6001600288020188555050505b50505050505050565b613d53838383613c78565b505050565b60008083356001602003843603038112613d7557613d74613bfb565b5b80840192508235915067ffffffffffffffff821115613d9757613d96613c00565b5b602083019250602082023603831315613db357613db2613c05565b5b509250929050565b6000819050919050565b600081549050919050565b7f4e487b7100000000000000000000000000000000000000000000000000000000600052601160045260246000fd5b60008190506001806001038301049050919050565b60008190508160005260206000209050919050565b613e597fffffffffffffffffffffffffffffffffffffffffffffffffffffffffffffffff836020036008026134c7565b815481168255505050565b613e6d8161325c565b613e788382546134f2565b8083556000825550505050565b6020841060008114613ee057601f841160018114613eae57613ea786856134f2565b8355613eda565b613eb78361325c565b613ece613ec387613377565b82016001830161345e565b613ed88785613e64565b505b50613f2d565b613ee98261325c565b613ef286613377565b8101601f87168015613f0c57613f0b8160018403613e29565b5b613f20613f1888613377565b84018361345e565b6001886002021785555050505b5050505050565b68010000000000000000841115613f4e57613f4d612988565b5b6020831060008114613f99576020851060008114613f7757613f7086856134f2565b8355613f93565b8360ff1916935083613f888461325c565b556001866002020183555b50613fa3565b6001856002020182555b5050505050565b8054613fb581613148565b80841115613fca57613fc984828486613f34565b5b80841015613fdf57613fde84828486613e85565b5b50505050565b5b8181101561400457613ff9600082613446565b600181019050613fe6565b5050565b614013600082613faa565b50565b6000821461402757614026613bcc565b5b61403081614008565b5050565b5b8181101561405357614048600082614016565b600181019050614035565b5050565b818310156140905761406882613dff565b61407184613dff565b61407a83613e14565b81810183820161408a8183614034565b50505050505b505050565b680100000000000000008211156140af576140ae612988565b5b6140b881613dc5565b8282556140c6838284614057565b505050565b600082905092915050565b6140e083836140cb565b6140ea8183614095565b6140f383613dbb565b6140fc83613e14565b60005b83811015614135576141118387613c0a565b61411c818386613d48565b60208501945060018401935050506001810190506140ff565b50505050505050565b6141498383836140d6565b505050565b6000808335600160200384360303811261416b5761416a613bfb565b5b80840192508235915067ffffffffffffffff82111561418d5761418c613c00565b5b6020830192506020820236038313156141a9576141a8613c05565b5b509250929050565b600081549050919050565b60008190506001806001038301049050919050565b60008190508160005260206000209050919050565b8183101561421f576141f7826141bc565b614200846141bc565b614209836141d1565b8181018382016142198183613fe5565b50505050505b505050565b6801000000000000000082111561423e5761423d612988565b5b614247816141b1565b8282556142558382846141e6565b505050565b600082905092915050565b61426e816124fc565b811461427957600080fd5b50565b6000813561428981614265565b80915050919050565b6000819050919050565b6142a6838361425a565b67ffffffffffffffff8111156142bf576142be612988565b5b6142c98183614224565b6142d283614292565b6142db836141d1565b6001830460005b8181101561431a5760006142f58561427c565b6142fe81613412565b80925060208701965050508082850155506001810190506142e2565b5050505050505050565b61432f83838361429c565b505050565b60008160001b9050919050565b60007fffffffffffffffffffffffffffffffffffffffffffffffffffffffffffffffff61436d84614334565b9350801983169250808416831791505092915050565b61438c826133f0565b61439f61439882613412565b8354614341565b8255505050565b600081356143b38161229a565b80915050919050565b60006143c782612290565b9050919050565b60008160001c9050919050565b60006143e6826143ce565b9050919050565b6143f6826143bc565b614409614402826143db565b8354614341565b8255505050565b6000808335600160200384360303811261442d5761442c613bfb565b5b80840192508235915067ffffffffffffffff82111561444f5761444e613c00565b5b60208301925060018202360383131561446b5761446a613c05565b5b509250929050565b600082905092915050565b60008190508160005260206000209050919050565b601f8211156144d4576144a58161447e565b6144ae84613377565b810160208510156144bd578190505b6144d16144c985613377565b83018261345e565b50505b505050565b6144e38383614473565b67ffffffffffffffff8111156144fc576144fb612988565b5b6145068254613148565b614511828285614493565b6000601f831160018114614540576000841561452e578287013590505b61453885826134f2565b8655506145a0565b601f19841661454e8661447e565b60005b8281101561457657848901358255600182019150602085019450602081019050614551565b86831015614593578489013561458f601f8916826134d4565b8355505b6001600288020188555050505b50505050505050565b6145b48383836144d9565b505050565b60008101600083016145cb8185613c0a565b6145d6818386613d48565b5050505060018101602083016145ec8185613c0a565b6145f7818386613d48565b50505050600281016040830161460d8185613d58565b61461881838661413e565b50505050600381016060830161462e818561414e565b614639818386614324565b5050505060048101608083018061464f8161427c565b905061465b8184614383565b5050506005810160a0830180614670816143a6565b905061467c81846143ed565b5050506006810160c083016146918185614410565b61469c8183866145a9565b505050505050565b6146ae82826145b9565b5050565b7f496e76616c6964207369676e6174757265206c656e6774680000000000000000600082015250565b60006146e860188361233f565b91506146f3826146b2565b602082019050919050565b60006020820190508181036000830152614717816146db565b9050919050565b7f19457468657265756d205369676e6564204d6573736167653a0a333200000000600082015250565b6000614754601c83613251565b915061475f8261471e565b601c82019050919050565b6000819050919050565b61478561478082612290565b61476a565b82525050565b600061479682614747565b91506147a28284614774565b60208201915081905092915050565b600060ff82169050919050565b60006147c9826147b1565b91506147d4836147b1565b9250828201905060ff8111156147ed576147ec613dd0565b5b92915050565b7f496e76616c6964207369676e6174757265202776272076616c75650000000000600082015250565b6000614829601b8361233f565b9150614834826147f3565b602082019050919050565b600060208201905081810360008301526148588161481c565b9050919050565b614868816147b1565b82525050565b60006080820190506148836000830187612e72565b614890602083018661485f565b61489d6040830185612e72565b6148aa6060830184612e72565b9594505050505056fea2646970667358221220d2ac1f5a46212b3af09395fb3cdb8321f8a46990c504b3e06a6aa7d3ae68eb0364736f6c634300081c0033",
  "linkReferences": {},
  "deployedLinkReferences": {}
}